:100000000C946A040C94B1040C94B1040C94B104E3
:100010000C94B1040C94B1040C94B1040C94B1048C
:100020000C94B1040C94B1040C94B42B0C94702B6C
:100030000C94E2350C94B1040C94B1040C94B1040A
:100040000C94B1040C94B1040C94B1040C94B1045C
:100050000C94B1040C94BE350C94B1040C94B1040E
:100060000C94B1040C94B1040C94B1040C94B1043C
:100070000C94B1040C94B1040C94B1040C94B1042C
:100080000C94B1040C94B1040C94B1040C94B1041C
:100090000C94B1040C94B1040C94B1040C94B1040C
:1000A0000C94B1040C94B1040C94B1040501090240
:1000B000A10185020901A100050919012905150001
:1000C00025019505750181029501750381010501E1
:1000D000093009311581257F950275088106093897
:1000E0001581257F950175088106050C0A380215D2
:1000F00081257F950175088106C0C005010980A191
:1001000001850319012AB700150126B7009501756D
:10011000108100C0050C0901A101850419012AA064
:1001200002150126A002950175108100C00660FF2E
:100130000961A1010962150026FF0095207508815B
:10014000020963150026FF00952075089102C0057D
:10015000010906A101050719E029E7150025019508
:1001600008750181029501750881010507190029AB
:10017000FF150026FF009506750881000508190186
:100180002905950575019102950175039101C0003E
:10019000000000000000000000000000000000005F
:1001A000000000000000000000000000000000004F
:1001B0000000007E0F00D4FFFFFFC70000007800A2
:1001C000000000000000002A2B28000000000000B2
:1001D0000000000000000000000029000000002CCA
:1001E0001E3420212224342627252E362D37382769
:1001F0001E1F202122232425263333362E37381F75
:100200000405060708090A0B0C0D0E0F1011121336
:100210001415161718191A1B1C1D2F3130232D35D4
:100220000405060708090A0B0C0D0E0F1011121316
:100230001415161718191A1B1C1D2F3130354CAA0E
:1002400000A9004E004B0001000100010001000167
:100250000001000100010001000100010001000196
:10026000000100010001002A004C00130012000CE4
:100270000018001C002843340033000F000E000D4E
:10028000000B00E5003800370036001000110005B3
:10029000004F005200510050002C002C000000299B
:1002A0000014001A0008001500170000002B0004BD
:1002B000001600070009000A000000E100E1001D2F
:1002C000001B00060019000000E000E300E2002C23
:1002D000002C002C000000000000000000000000C6
:1002E000000000000000000000000000000000000E
:1002F00000000000000000000000000000000000FE
:1003000000000000000000000000000000000000ED
:1003100000000000000000000000000000000000DD
:1003200000000000000000000000000000000000CD
:1003300000000000000000000000000000000000BD
:1003400000000000000000000000000000000000AD
:10035000000000000000000000000000000000009D
:10036000000000000000000000000000000000008D
:10037000000000000000000000000000000000007D
:10038000000000000000000000000000000000006D
:10039000000000000000000000000000000000005D
:1003A000000000000000000000000000000000004D
:1003B000000000000000000000000000000000003D
:1003C000000000000000000000000000000000002D
:1003D000000000000000000000000000000000001D
:1003E000000000000000000000000000000000000D
:1003F00000000000000000000000000000005C00A1
:1004000000000000000000000000000000000000EC
:1004100000000000000000000000000000000000DC
:1004200000000000000000000000000000000000CC
:1004300000000000000000000000000000000000BC
:1004400000000000000000000000000000000000AC
:10045000000000000000000000000000000000009C
:10046000000000000000000000000000000000008C
:10047000000000000000000000000000000000007C
:10048000000000000000000000000000000000006C
:1004900000000000000000010001009C02000002BA
:1004A00000020098020000030001009D0200000409
:1004B0000002008202EA0A050001009E0200000616
:1004C00000020084020000070002009A02000008F7
:1004D0000001009F020000090002008602C50A0A0E
:1004E0000002008802C50A0B0002008A02C50A0C3D
:1004F0000002008C02C50A0D0002008E02C50A0E21
:100500000002009002C50A0F0002009202C50A1004
:100510000002009402C50A110002009602C50A12E8
:10052000000200A002000013000200A2020000FD71
:10053000377A585A000004E6D6B446020021011664
:10054000000000742FE5A3E0089002435D003D88A1
:1005500089C65436C3174FE4E4F11CDDA4236B6C49
:100560009D3453EBFAD63A91ED5632A24695990551
:10057000CD8AA2B1B9A7417CD9BC3EEB45AFC1B58C
:10058000BB9ABC8ED2D23FFBEB033700954166AFDE
:10059000A536A945201A9E42AD4B8161929D78E512
:1005A000EAC963E9090CF6E531BA47A726CE38BB9C
:1005B00060AE2CAD2B8569D5CE06258203ED6FD7B5
:1005C000C77EC5B47DAF01D0716C328807A18D089C
:1005D000836A30A98EFE0770B5A8BD503247E8B3D4
:1005E00068923CD4306C510D317C84B28B60C7482A
:1005F000557C08EB6BB5C772D9D7D792C262D70BBF
:10060000B3A77C70B23668A7744E6F42A9770568AD
:10061000913E45B7527456B58296F72D0FAA48D928
:10062000B5E0BAD22587BCA7A491DD846478790CA3
:100630008ABFDA20282D122BC150481DA76FB21295
:100640001D5DD839B2C022A2B9AE500D5A6DA65E5A
:100650006517A29292E93CBDD289EF0CC7A65EA6AF
:1006600085C520B30B88FEBB919E8C6C87736BFF96
:10067000A9A0E84C02B349D19AF66B84E005721F39
:10068000FA7D4115B8A5E48E568A579EAB49295D7F
:10069000C2FA82E3ABC5745E1A1DD31FDEF22029B5
:1006A00052EF9C43CFA32CAA32A87E4316D7F8D58D
:1006B00068A21985C99CE310A60891BBA8029CBB3F
:1006C000C64CB5E6C43B269A62D76C081B82AC6D5B
:1006D000350DCFFCA29982A32E4F253D95AB9712E5
:1006E000A6FA0CFE02A7D1700DEB07F5B6EFA2211A
:1006F00074F55F07F0D0B5912F76FB322A61EC21BB
:100700001ACF3BC4F0E28CF45F47E74E4A8CECDF33
:10071000F6DC2C1629FFA8981901805F54512AE0B5
:10072000231F7F76906D183F4F864F316C66674769
:10073000F57E7C944738449384A59E3768F4566CC4
:100740008722AF701E5A3EF355C4E8DDA72608FC89
:1007500001C3CE17AB1A499784DC7B07B45FADAEFB
:1007600093AAFB29C433712783F18F84527AF1A0B5
:1007700091D246872E73B61476A7C95D67C281628F
:100780003CC6EB9A73BC19972BEF2967BD6A237996
:10079000C10000EDC445BEE04364C90001DF04911F
:1007A0001100006193A5CDB1C467FB0200000000F9
:1007B00004595A0902BF00050100A0FA090400000B
:1007C0000103010100092111010001224000070578
:1007D000810308000A090401000203000000092146
:1007E00011010001222200070582032000010705F4
:1007F0000303200001090402000103000000092195
:10080000110100012281000705840320000A080B62
:1008100003020101000009040300000101000009B6
:10082000240100010900010409040400020103007D
:1008300000072401000141000624020101000624F2
:10084000020202000924030103010201000924033A
:10085000020401010100090506024000050000052F
:10086000250101010905850240000500000525015B
:1008700001031201100100000008444B70510100F7
:10088000010203011C037600690061006C003A005C
:1008900066003600340063003200620033006300FB
:1008A00000000E03510041005A0070006100640016
:1008B00000001C034B0069007300650072002000FB
:1008C000440065007300690067006E00730000005B
:1008D0000403090411241FBECFEFDAE0DEBFCDBF51
:1008E00004B603FE27C08091300490913104A0919A
:1008F0003204B09133048730904BA740B04BD1F411
:100900001092300410923104109232041092330489
:1009100014BE84B7877F84BF0FB6F894A8958091E2
:100920006000886180936000109260000FBEE0E07C
:10093000F8E3099511E0A0E0B1E0E4EEFDE602C0C5
:1009400005900D92AE39B107D9F724E0AEE9B1E0D8
:1009500001C01D92A033B207E1F70E948B2C0C94CA
:10096000B1360C940000CF92DF92EF92FF920F937A
:100970001F93CF93DF9300D00F92CDB7DEB77C01EA
:10098000162FD42EC22E809164038430B9F5E091E5
:100990005903F0915A03309709F440C0C7010197F9
:1009A00063E070E00E940936CB01880F991F860F23
:1009B000971F19834A83CB824E2D481B9E012F5FC0
:1009C0003F4FBC018FE393E00995E0915D03F09107
:1009D0005E03309739F00C2D2D2D412FB7018FE399
:1009E00093E009950F900F900F90DF91CF911F9199
:1009F0000F91FF90EF90DF90CF90089582E0E8167E
:100A0000F10409F45AC083E0E816F104A9F081E08A
:100A1000E816F10409F484C0F12CE12CE0915B03A9
:100A2000F0915C03309789F20C2D2D2D412FB701E9
:100A30008FE393E00995C9CF862F807F803A11F12B
:100A400088F48038D1F0E0914303F0914403803979
:100A500029F7309719F3123F49F12C2D4D2D612FB5
:100A60006F7027C0803E99F0803FB1F0E091410364
:100A7000F0914203803B91F6ECCFE0914503F09179
:100A80004603E7CFE0914703F0914803E2CFE091BE
:100A90004903F0914A03DDCF623F09F0BFCFE091F7
:100AA0004B03F0914C03309709F4B8CF2C2D4D2D0A
:100AB00062EF8FE393E0099588CF862F807F803D9A
:100AC000B9F0803FD1F0E0914D03F0914E03803CAE
:100AD00009F0A4CF309709F4A1CF812F8D7F4D2D40
:100AE000612F6F70813FC9F08FE393E009956DCF5F
:100AF000E0914F03F0915003EDCFE0915103F0915D
:100B00005203633F39F0613F09F088CFE09153030E
:100B1000F0915403309709F481CF4D2D612FE4CF2C
:100B2000E0915503F0915603683F38F4663F09F0B1
:100B300075CFE0915703F0915803309709F46ECFC9
:100B4000612F8FE393E0099540CFE8EDF0E08081DD
:100B50008E7F80831092E2001092DA001092E10002
:100B6000A0EEB0E08C9181608C9380818F77808340
:100B700019BCA7EDB0E08C918E7F8C9380818F7E25
:100B800080831092280308952091E4003091E500BD
:100B900095E6A9012091EC00822F817020FF06C00C
:100BA0008091E80080FF06C080E008952091E80071
:100BB00022FD1AC080913E03882389F0853089F098
:100BC0008091EB0085FD0FC02091E4003091E5009D
:100BD00042175307F9F29150E1F684E0089582E05C
:100BE000089583E0089581E00895EF92FF920F93B6
:100BF0001F93CF937C018B010E94C405C82F8111E4
:100C000017C08091E80085FD0BC08091E8008E77C9
:100C10008093E8000E94C405882399F3C82F08C078
:100C2000F70181917F018093F1000150110949F78B
:100C30008C2FCF911F910F91FF90EF900895CF933C
:100C4000FC0180913E03843001F5C091E900CF7032
:100C50002091EC00922F917020FD90E8C92B82E04A
:100C60008093E9008091E80080FF0CC050E040E0F4
:100C700060E270E0CF010E94F5058091E8008E7778
:100C80008093E800CF70C093E900CF910895EF9270
:100C9000FF920F931F93CF937C018B010E94C40599
:100CA000C82F811117C08091E80085FD0BC080918D
:100CB000E8008B778093E8000E94C405882399F3AD
:100CC000C82F08C08091F100F70181937F01015086
:100CD000110949F78C2FCF911F910F91FF90EF9041
:100CE00008958091360387FF13C08091E80082FF4A
:100CF00006C08091E8008B778093E80004C0809163
:100D00003E038111F2CF089580913E038823D9F3E9
:100D10008091E80080FFF8CF8091E8008E77ECCFDB
:100D2000982F9093E900242F762F50E0891731F007
:100D30007091EC002091ED005091F00021FD07C072
:100D40009F5F973071F78093E90081E008953091BB
:100D5000EB003E7F3093EB003091ED003D7F309310
:100D6000ED003091EB0031603093EB007093EC00BC
:100D70002093ED005093F0002091EE0027FDE0CF8E
:100D800080E00895CF92DF92EF92FF920F931F932E
:100D9000CF93DF93C8EDD0E088818F7E8883E7ED25
:100DA000F0E080818160808384E082BF81E0809375
:100DB000280388818E7F888302EE10E0F80110827C
:100DC0001092DA0081EEC82ED12CF60110828881B3
:100DD0008F77888388818068888388818F7D8883E6
:100DE00019BC10923E0310923503109234031092F6
:100DF000330390EEE92EF12CF70180818B7F808305
:100E000088818160888342E060E080E00E949006F3
:100E1000F60180818E7F8083F801808181608083EC
:100E2000808188608083F70180818E7F80838881C4
:100E300080618883DF91CF911F910F91FF90EF9098
:100E4000DF90CF900895FC0180913C0390913D0389
:100E500086179707A0F06115710529F49091E800B5
:100E60009E779093E80090E06115710551F491111F
:100E700008C08091E80082FF34C080E00895BC0182
:100E8000F2CF80913E038823C1F18530C1F180917A
:100E9000E80083FD30C08091E80082FDEACF8091B8
:100EA000E80080FFE1CF8091F3002091F200382F1D
:100EB0006115710519F02830310558F091E028309E
:100EC000310509F090E02091E8002E772093E800AA
:100ED000CBCF81918093F100615071092F5F3F4F1B
:100EE000E7CF80913E03882341F0853041F0809127
:100EF000E80083FFBECF81E0089582E0089583E09B
:100F0000089580E008950895089580912A03089532
:100F1000982F907F903BE9F040F49039D1F0903ACF
:100F2000C1F09038B1F080E00895903D19F020F4C0
:100F3000903CC9F782E00895903E59F0903F99F7B0
:100F4000815F8F3080F7E82FF0E0E35AFE4F808119
:100F5000089583E00895DF92EF92FF920F931F931D
:100F6000CF93DF9300D000D0CDB7DEB77B01142F35
:100F7000D22E4A832B830C83842F0E9488078111F1
:100F800041C082E0E816F104C1F183E0E816F10403
:100F900039F0EA94EF2829F5173F29F485E004C0D9
:100FA00087E0073F09F084E0898380913E03843025
:100FB000C1F480910E018F708093E90050E040E011
:100FC00064E070E0CE0101960E94F505811109C030
:100FD0008091E80085FD05C08091E8008E778093C0
:100FE000E8000F900F900F900F90DF91CF911F911D
:100FF0000F91FF90EF90DF90089587EFD812D3CF35
:1010000086E0D2CF12951F701983CFCFFF920F9336
:101010001F93CF93DF9300D000D000D00F92CDB7B5
:10102000DEB78C0108511F4F80913E03843009F0D8
:101030006CC0809113018F708093E9008091E8006B
:1010400082FF63C08091E80085FF5FC050E040E010
:1010500064E070E0CE0101960E9447068091E800AE
:1010600085FD05C08091E8008B778093E800FA80C9
:101070008F2D0E948807282FFD828B818E838C8183
:101080008F8321110AC08981843039F1873029F199
:10109000863029F121E0853039F630E0E5E0F0E0F6
:1010A000EC0FFD1FE30FF11DF0804FB7F894D8014E
:1010B0001196EC911197F0E0CF01019612966C9188
:1010C00070E00E941D36D8015C915817190649F44A
:1010D0004FBF3F5F321710F3A7CF23E0DECF22E0F0
:1010E000DCCF13968D919C911497E80FF91FF08235
:1010F00011968C91119790E0019612966C9170E088
:101100000E941D36F8018183E3CF27960FB6F8942D
:10111000DEBF0FBECDBFDF91CF911F910F91FF902A
:1011200008959C014FB7F89480912003909121037A
:10113000A0912203B09123034FBF821B930B08950C
:101140002FB7F8948091200390912103A09122035E
:10115000B09123032FBF08959C01FC0132969FEFAD
:1011600080E04191461751F09F3F19F4411101C0B1
:10117000982F8F5F8630A9F79F3F09F40895290FB4
:10118000311D97FD3A95F901628308958091A90276
:10119000882331F01092A9021092A8021092A7029F
:1011A000089580959091A60298239093A6020895A1
:1011B00080959091A50298239093A502089510928E
:1011C00081021092800210927F0208958091840221
:1011D00090918502892B89F00E94A0082091A70296
:1011E0003091A802AC01421B530B81E02091840294
:1011F000309185024217530708F480E0817008950A
:101200008091A5029091A602892B9091A402892B2E
:101210008093A0018091A902882309F18091840222
:1012200090918502892B29F00E94E60881110E9485
:10123000C6088091A0019091A902892B8093A001FA
:1012400020E082EA91E0FC013191CF0131112F5F62
:10125000F1E0883A9F07B9F721110E94C608E09192
:10126000F502F091F602309731F00280F381E02D23
:1012700080EA91E00994089580917E028111109294
:101280007E0208959E3F49F1E82F27E0929FE00DEE
:1012900011249E2F9770E695E695E69585E0E89FE8
:1012A000F0011124E55AFD4F50E040E080E021912B
:1012B00030E0092E02C0369527950A94E2F7217096
:1012C0003327042E01C0220F0A94EAF7822B4F5FC6
:1012D0005F4F4530510559F7089580E008959E3FCE
:1012E00069F1E82F27E0929FE00D11248E2F87707F
:1012F00041E001C0440F8A95EAF7E695E695E69548
:1013000085E0E89FF0011124E55AFD4F30E020E030
:1013100070E05191DF011197CB01022E02C096952A
:1013200087950A94E2F78170819585278423852724
:101330008C932F5F3F4F2530310559F70895209149
:101340005A029091290256E0291302C080E00895C4
:1013500030E0529FF001539FF00D1124E65DFD4FE8
:101360007181761306C07081781303C07281741383
:1013700004C02F5F3F4F2770E7CF81E00895452BD2
:1013800039F0682381E06F3F09F080E081700895B3
:1013900081E0FCCF80915A0290912902981301C0FC
:1013A00008958F5F8770FACFE92FE295EF70E250D2
:1013B000EE3070F4F0E0ED54F94C0C943136803F8F
:1013C00019F020F4883E20F481E00895843FE1F391
:1013D00080E00895883EC0F3813FD1F7F5CF93FBBD
:1013E000882780F90895882321F00E94D1080C9461
:1013F00000090895882339F09091A602982B9093C4
:10140000A6020C9400090895882321F00E94D808B0
:101410000C9400090895882339F09091A502982B27
:101420009093A5020C94000908952091BE0130917B
:10143000BF012817390771F09093BF018093BE0157
:10144000E091F502F091F602309721F00084F185E9
:10145000E02D099408952091BC013091BD01281719
:10146000390771F09093BD018093BC01E091F502C2
:10147000F091F602309721F00680F781E02D099473
:101480000895E091F502F091F602309721F0019075
:10149000F081E02D099480E00895CF93DF93EC0173
:1014A00081E0898B8091A5029F81892B8093A50281
:1014B0008091A6029885892B8093A6020E9400093C
:1014C000EA81FB81309739F06C897D89CE010696DF
:1014D000DF91CF910994DF91CF910895EF92FF9220
:1014E0000F931F93CF93DF93EC018A85811134C052
:1014F000EB80FC8087E5F81A26E12E9DC0012F9D28
:10150000900D1124DC01AE53BE4F1496ED91FC9169
:101510001597309731F054966D917C9188539E4F7A
:10152000099586E18E9D80018F9D100D11240E532B
:101530001E4FF80187810E94D808F80180850E941B
:10154000D1080E940009188219861B861E821D82FE
:101550001092C1011092C001DF91CF911F910F91A4
:10156000FF90EF900895E3EDF2E082E0E73EF807A8
:1015700039F484E090E09093190280931802089562
:10158000848187FF14823596F0CFE2E8F2E084810F
:1015900095812AE030E0B9010E94093660930B0181
:1015A000868180930C0182858093030184858093DA
:1015B000020186859785B9010E9409366093090169
:1015C000808980930A0182898093010184898093B4
:1015D0000001089580918202909183029093050109
:1015E0008093040108950E94A0089C019091060335
:1015F00080910703982B21F030930303209302037B
:101600009091080380910903982B21F030930003F7
:101610002093FF02E091F502F091F602309749F035
:1016200082E0809304030480F581E02D84E093E060
:101630000994089590E080E00E942B0A90E080E0F9
:101640000E94150A1092A6021092A4020E9400099C
:1016500086E0E4E0F3E0DF011D928A95E9F710925D
:1016600001031092FE02109222020C94F30A60937E
:101670002C0470932D0480932E0490932F040C94CB
:101680001A0B0F931F9360912C0470912D0480917D
:101690002E0490912F048B019C01067011272227A4
:1016A0003327063011052105310529F468601F91A3
:1016B0000F910C94370B677FFACF0F931F9341E084
:1016C00050E060E070E004C0440F551F661F771FB4
:1016D0008A95D2F7CB01BA01609570958095909567
:1016E00000912C0410912D0420912E0430912F0490
:1016F00060237123822393231F910F910C94370B46
:10170000909181028095892380938102282F2770F0
:1017100039F4282F082E000C330B9217130621F4EE
:101720009091E80292FF07C08595859585950E9466
:101730005D0B0C94DF0808950F931F9341E050E078
:1017400060E070E004C0440F551F661F771F8A9544
:10175000D2F780912C0490912D04A0912E04B09189
:101760002F048A019B01082B192B2A2B3B2BC90123
:10177000B8011F910F910C94370B9091E80292FDE4
:1017800010C098E0899F90011124622B6093810220
:101790000E949C0B0E94A0089093800280937F027D
:1017A00008950C949C0B6093AA027093AB028093F3
:1017B000AC029093AD020C941A0B90910603803FFB
:1017C00059F48091070387FF0DC010920703911110
:1017D0000BC01092010308C0813F81F48091070380
:1017E00018169CF3992381F08091080390910903C6
:1017F000892B09F064C01092FE020895823F49F4DB
:1018000097FFF0CF10920603809107038111ECCF70
:10181000E0CF833F19F41916ACF3E4CF209108030D
:10182000893F29F41216F4F610920803DBCF8A3FA1
:1018300019F427FFD7CFF8CF209109038B3F29F464
:1018400027FFD0CF10920903CDCF8C3F19F4121689
:10185000CCF3C8CF843F31F4809105038E7F809311
:101860000503C0CF853F21F4809105038D7FF7CF1D
:10187000863F21F4809105038B7FF1CF873F21F4D0
:1018800080910503877FEBCF883F21F4809105038A
:101890008F7EE5CF8D3F31F4809122028E7F809341
:1018A0002202A0CF8E3F21F4809122028D7FF7CFBC
:1018B0008F3F09F097CF809122028B7FF0CF089560
:1018C0008823B1F19CEF980F913A70F4E2EAF1E0CD
:1018D0009191891303C0DF0111971C9291E0E83ABE
:1018E000F907B1F70C94000990E2980F983050F482
:1018F000877091E001C0990F8A95EAF7892F0E94BD
:10190000D808F0CF9BE5980F933020F490E080E06A
:101910000C942B0A98E5980F973120F490E080E022
:101920000C94150A803F20F00E94DD0B0C94F30A02
:1019300008958091220280FF0CC06091010170E047
:1019400075956795759567956115710549F1862FB0
:10195000089581FF06C06091010170E0759567955B
:10196000F3CF6091010182FD0BC09091FE0299239B
:10197000A1F06091000180910101961738F0682F65
:1019800070E06038710500F38FE70895899FC0010A
:10199000112470E00E941D36F4CF61E070E0D7CFD3
:1019A00081E008958091220260918A0270918B02F9
:1019B00080FF16C020910301269FC001279F900D34
:1019C0001124BC0176956795769567956038710509
:1019D00008F043C06115710509F441C0862F0895D0
:1019E00081FF0BC020910301269FC001279F900D0E
:1019F0001124BC0176956795E9CF82FF09C08091DB
:101A000003019B01829FB001839F700D1124DECFE3
:101A1000209101032223D1F29091020180910301D0
:101A2000482F50E0291748F0CB01849FB001859FD3
:101A3000700D949F700D1124C9CF289F900111241F
:101A4000269FA001279F500D369F500D1124692F0E
:101A500070E0CA010E940936B9CF8FE7089581E08E
:101A60000895803F31F40E94D20C81958093070342
:101A70000895813F19F40E94D20CF8CF823F31F4CF
:101A80000E94D20C8195809306030895833F19F438
:101A90000E94D20CF8CF893F29F40E94990C8093C0
:101AA000080308958A3F21F40E94990C8195F7CF8D
:101AB0008B3F31F40E94990C81958093090308951E
:101AC0008C3F19F40E94990CF8CF843F31F4809137
:101AD00005038160809305030895853F21F480917B
:101AE00005038260F7CF863F21F48091050384606F
:101AF000F1CF873F21F4809105038860EBCF883FC9
:101B000021F4809105038061E5CF8D3F31F4809110
:101B1000220281608093220208958E3F21F48091F9
:101B200022028260F7CF8F3FB9F780912202846052
:101B3000F1CFCF93C82F882309F456C08CEF8C0FB8
:101B4000813AF8F4E2EAF1E088EA91E0DF012D91D0
:101B5000C21759F08A179B07D1F76C2F80EA91E0E2
:101B60000E94AC08CF910C9400092191C21303C0CC
:101B7000DF0111971C928E179F07B9F70E94000989
:101B8000ECCF80E28C0F883068F4C77021E030E041
:101B900001C0220FCA95EAF78091A502822B80939B
:101BA000A502E0CFEBE5EC0FE33040F4F0E0E45DBC
:101BB000FE4F808190E0CF910C942B0AE8E5EC0F6A
:101BC000E73150F4F0E0EE0FFF1FE15DFE4F808142
:101BD0009181CF910C94150AC03F30F08C2F0E9458
:101BE000310DCF910C94F30ACF910895F894E82F1A
:101BF000E295EF70F0E031A1282F2F7081E090E0A6
:101C000001C0880F2A95EAF7982F9095932391A306
:101C100092A1892B82A3789408959091E70292FF74
:101C200006C0282F28712830F9F4877F846093FF3D
:101C300006C0282F28712831F1F4877E8461209115
:101C4000E80220FF06C0382F38713830D9F4877F7A
:101C5000816021FF06C0282F28712831D1F4877EAA
:101C6000816194FD877E0895282F24712430F9F630
:101C70008B7F8860DCCF282F2471243101F78B7E85
:101C80008861DDCF382F3171313019F78E7F886050
:101C9000E0CF282F2171213121F78E7E8861E1CF9D
:101CA000CF93DF939C013A9521153F4168F5EC01F4
:101CB000CC27D170DC01AA27B270AC014427547044
:101CC0009C012227387094FF11C080E1CD2B09F4CC
:101CD00080E0AB2B09F08062452B09F08064232B58
:101CE00009F08068FB01DF91CF91099481E0CD2B51
:101CF00009F480E0AB2B09F08260452B09F0846089
:101D0000232B81F38860EECFDF91CF910895CF939D
:101D1000DF93EC010E94600CCE01805E9109089770
:101D200020F063EF79E0209711F464E07AE0CE01CF
:101D3000DF91CF910C94500ECF93DF93EC01805E36
:101D40009109089720F06AEF79E0209711F46BE091
:101D50007AE0CE010E94500E8C2FDF91CF910C942F
:101D6000990DCF9390911402992321F0811116C0FF
:101D700010921402CF910895EC2FF0E0EE0FFF1FA8
:101D8000EA5FFD4F808191810E949C0E0E940009B4
:101D9000CF5F80911402C81778F3EACFC0E0F9CF83
:101DA000CF93DF9300D00F92CDB7DEB790913E0373
:101DB000943011F589837B836A839093E9008FEFD8
:101DC0009091E800815095FD06C095ED9A95F1F748
:101DD00000008111F5CF8091E80085FF0DC050E033
:101DE00040E063E070E0CE0101960E94F50580912D
:101DF000E8008E778093E8000F900F900F90DF91AE
:101E0000CF910895BC0184E00C94D00EBC0183E016
:101E10000C94D00E9C0184E08093E9009FEF8091A8
:101E2000E800915085FD06C085ED8A95F1F7000028
:101E30009111F5CF8091E80085FF0CC050E040E0A3
:101E400066E070E0C9010E94F5058091E8008E7798
:101E50008093E8000895CF93DF93EC0181E08093B5
:101E6000E9008FEF9091E800815095FD06C095ED57
:101E70009A95F1F700008111F5CF8091E80085FF78
:101E800014C050E040E068E070E0CE010E94F5052B
:101E90008091E8008E778093E80088E0FE01ABE255
:101EA000B3E001900D928A95E1F7DF91CF9108950B
:101EB00081E08093E00080E28093D8001092C90016
:101EC0008FE19EE40197F1F700C0000087E090EBFE
:101ED000DC018093300490933104A0933204B093DA
:101EE000330488E19CE00FB6F894A89580936000D5
:101EF0000FBE90936000FFCF1F93CF93DF93182FF7
:101F0000C091A202D091A302893321F0C091A00216
:101F1000D091A102812F0E94990D209731F4812F39
:101F2000DF91CF911F910C94600C8FE99FE0019796
:101F3000F1F700C000002197F0CF0F931F93CF93CC
:101F4000DF93C42FD22FFC0182818823A1F040931C
:101F50001E020E94A0089093BB018093BA01C77033
:101F600081E001C0880FCA95EAF7DF91CF911F91F8
:101F70000F910C940B0A10911E02141339C080911A
:101F8000BA019091BB010E94910820919A02309170
:101F90009B028217930760F5C0E2CD0F1D17B9F0C1
:101FA00080E2810F883040F4177081E001C0880F13
:101FB0001A95EAF70E94040AC83048F481E09D2F80
:101FC000977001C0880F9A95EAF70E940B0A802F3C
:101FD0000E947C0FC83098F4D77081E001C0880F50
:101FE000DA95EAF7DF91CF911F910F910C94040AD3
:101FF000C77081E001C0880FCA95EAF7F3CFDF917F
:10200000CF911F910F910895DF92EF92FF920F935E
:102010001F93CF93DF93E82FF0E0E154FE4FD4906D
:10202000282F26952695269530E0F901E155FE4F9B
:102030000491877010E0082E02C0159507950A9448
:10204000E2F701701127F901E156FE4FE490F12CFF
:10205000082E02C0F594E7940A94E2F791E0E92291
:10206000FF24F901E157FE4FC491D0E002C0D5959D
:10207000C7958A95E2F7C170DD270115110519F0A2
:1020800081EE0E94990DE114F10419F086EE0E9490
:10209000990D8D2D0E947C0FEF2819F086EE0E947D
:1020A000600C012B19F081EE0E94600CCD2B51F0D9
:1020B0008CE2DF91CF911F910F91FF90EF90DF9015
:1020C0000C947C0FDF91CF911F910F91FF90EF90B7
:1020D000DF900895019708F40895EFE9FFE0319744
:1020E000F1F700C00000F6CFFF920F931F93CF933C
:1020F000DF938C01EB01F42E8091080182FF43C035
:102100008B7F8093080180911A0220911C023091EC
:102110001D02AB01421B530B9A01409104015091E7
:10212000050124173507A8F40E94990D8091080134
:102130008D7F809308018091A0029091A1020E945E
:102140006A1080911A020E94600C82E00E94D108FD
:1021500024C09091A60292609093A6020E94990DCD
:102160008091080182608093080180919D0285FF23
:10217000E2CF86FDE0CFFF20F1F2DF91CF911F91FA
:102180000F91FF900895802F0E94600C80911A0299
:1021900090911B0280179107C1F20E940009D09311
:1021A0001D02C0931C02E9CFAF92BF92CF92DF9283
:1021B000EF92FF920F931F93CF93DF93CCE6D1E082
:1021C0000DEE12E06801B12CEE24E394F12C89911C
:1021D000F894E82FE295EF70F0E021A18F70A7014D
:1021E00002C0440F551F8A95E2F7CA01922F982B1F
:1021F00091A392A18095892382A3789400C0E4E7FB
:10220000F1E030E020E0A12C4191A42FA295AF7025
:10221000B0E090968C9190E04F7002C095958795B4
:102220004A95E2F780FD44C08E2D022E01C0880F32
:102230000A94EAF7A82A2F5F3F4F2730310521F78C
:10224000FE01319780810E94F60D50EA5A95F1F710
:10225000D6018C91A81671F1AC9281E0B82ABFEF3B
:10226000CB1ADB0AE1E0C437DE0709F0B0CFBB20B0
:1022700019F181E08093AA010E94A0089093A9011E
:102280008093A8018091A8019091A9010E949108D2
:102290000697B0F0E8E1F3E085EF92E0D8012D91E8
:1022A0008D0121938A179B07C9F71092AA0108C0D4
:1022B00080E0C0CF80E0D2CF8091AA018111E2CF2F
:1022C0008091060110E006E18F3F09F062C0809125
:1022D0000701811169C080919D0280FF1CC080911F
:1022E000080182FF18C00E94A00820911C023091B2
:1022F0001D02AC01421B530B2091040130910501DA
:102300004217530740F041E0BC0180911A029091BE
:102310001B020E9474108B2DDF91CF911F910F91A2
:10232000FF90EF90DF90CF90BF90AF900895029F05
:10233000F001039FF00D1124EE53FE4FE288F38865
:10234000E114F10421F4E0909A02F0909B02029FC4
:10235000E001039FD00D1124CE53DE4F8E818823E0
:10236000B9F08D859E850E949108E816F90680F4E3
:10237000109F700111248989811105C0C7018E53F6
:102380009E4F0E944D0AC70188539E4F0E946E0ABD
:102390001F5F212F30E080910601082E000C990B61
:1023A0008217930724F693CF80911502909116021D
:1023B000009709F490CF0E949108209198023091E3
:1023C00099022817390708F086CF81E00E94B10EE4
:1023D0000E94B30A80CF1F93CF93DF93EC011AE0E2
:1023E0008881882309F43EC08130C9F599818A81AA
:1023F000913029F422960E947C0F2196F1CF9230E1
:1024000021F422960E94990DF8CF933021F4229660
:102410000E94600CF2CF943011F02196EECF2296FC
:1024200030E020E0AE014F5F5F4F8053990B8A3060
:10243000910550F02150310900F38FE99FE0019799
:10244000F1F700C00000F6CF129FB001139F700D8E
:1024500011249C01260F371F8981EA01E3CF0E94D6
:102460000410CBCFDF91CF911F910895CF9384E0DB
:1024700090E00E946736C82F82E290E00E946736A3
:10248000982F8C2FCF9108950F931F93CF93DF93A5
:1024900002E812E0C0E8D2E0CE010E946736F801FF
:1024A00081938F012196C23AF2E0DF07A9F7CDE9C7
:1024B000D4E0FE0185919491009711F0FC010995FB
:1024C0002896F5E0C533DF07A1F7DF91CF911F9183
:1024D0000F9108950F931F93CF93DF93853038F5B5
:1024E000623028F528E0829FC001112434E0639F08
:1024F000B0011124860F971FC42FD0E0CC0FDD1F31
:10250000C80FD91FC85ADD4FCE010E946736082F69
:1025100010E0102F0027CE0101960E946736980127
:10252000282BC901DF91CF911F910F91089590E061
:1025300080E0F8CF0F931F93CF93DF93853030F572
:10254000683020F5473010F5C42FD0E0CC0FDD1FE8
:102550002EE0629FC00DD11D112430E7839FC00D76
:10256000D11D1124CE0188960E946736082F10E0F5
:10257000102F0027CE0189960E9467369801282BDC
:10258000C901DF91CF911F910F91089590E080E0F4
:10259000F8CF462F2091260330912703232B91F467
:1025A0007E3F39F46E3F71F48091B8019091B9018A
:1025B0000895853038F4783028F4673018F4672FA0
:1025C0000C949A1290E080E00895CF93DF930E94DC
:1025D000C912EC0182389105A9F1D8F58133910532
:1025E00009F496C048F58932910509F48AC08A97A2
:1025F00009F495C0C11521E5D20708F0BCC0C1158A
:1026000030E5D30708F014C1C83ED10508F09CC0DE
:10261000C03ED10560F5C83AD10508F087C0C53A7B
:10262000D10508F0FDC0C130D10509F12097F9F0BE
:10263000C430D105E0F440C08533910509F45AC097
:10264000C997C1F68091E702837089F0C0EED0E0AF
:102650000EC0833E910599F170F4803E910501F121
:10266000823E910539F68091E70282FD21C0CE01BC
:10267000DF91CF910895863E910561F1873E9105E6
:1026800071F1843E910509F0B5CF8091E80281FF98
:10269000EECF8091E702C7EED0E084FD0DC0E7CF1A
:1026A0008091E70280FD12C19091E80290FFDFCF98
:1026B000C3EED0E084FFDBCFD0E0C0E0D8CF809184
:1026C000E70282FD06C19091E80290FDBFCF84FF32
:1026D000CECFF2CF8091E70283FDDDCFC8CF8091CE
:1026E000E70283FDF9C09091E80291FFF0CFC4EEBC
:1026F000D0E0BDCF8091E70285FFB9CFC9E2D0E03D
:10270000B6CF8091E70285FFB2CFC5E3D0E0AFCF6F
:102710008091E70286FFABCFCAE2D0E0A8CF8091DC
:10272000E70286FFA4CFC1E3D0E0A1CFCF3BD10524
:1027300018F6C85AD0E0CC0FDD1FC15DDE4F0990FE
:10274000D881C02DD46493CFC11540E2D40758F48A
:10275000C11581E0D80708F08ACFC03FD10508F441
:10276000ABCFD06584CFC11590E4D90708F4A4CFCE
:10277000DF70D06A7CCFC11525E5D20700F5C11501
:1027800034E5D30708F08AC0C11543E5D40708F043
:1027900071C0C11582E5D80708F467C0CE01837007
:1027A000992721E030E002C0220F331F8A95E2F71B
:1027B000C695C69580E2C89FE001112452C0C1159C
:1027C00099E5D907A8F4C11528E5D20708F06BC030
:1027D000C11536E5D30708F06FCF8C2F0E940D0E80
:1027E000C82FD0E0DC2FCC27CC27DF71D0623FCFC1
:1027F000C1154AE5D40708F45BC0CE019056811597
:10280000904208F059CF8D2F8F710E940D0E90E0ED
:10281000982F882788279F719C012C2BE901E6CFF0
:10282000C55AD0E0C45DDE4FC881D0E0D0641FCF70
:10283000CE01E4E096958795EA95E1F783702C2F19
:1028400026952695237040E2249F90011124382B71
:102850008C2F8370C1E0D0E002C0CC0FDD1F8A95C1
:10286000E2F7C22BD32BDC6802CFDC2FCC27C16F61
:10287000D06AFDCECE018370992721E030E002C0FE
:10288000220F331F8A95E2F7C695C69590E2C99F3D
:10289000E0011124C22BD32BDA68E9CEDC2FCC2740
:1028A000C46FD06AE4CEDC2FCC27C06FD06ADFCEF5
:1028B0008C2F8F700E940D0E34E0D695C7953A95F7
:1028C000E1F7CF709C2FEC01D069D1CEC9E3D0E005
:1028D000CECEC2EED0E0CBCEC6EED0E0C8CEBF9218
:1028E000CF92DF92EF92FF920F931F93CF93DF93DC
:1028F0008C01C0902C04D0902D04E0902E04F09018
:102900002F048091AA029091AB02A091AC02B091E9
:10291000AD02C82AD92AEA2AFB2ACFE1D0E0BC2E90
:10292000D701C6010C2E04C0B695A795979587953B
:102930000A94D2F780FD0EC0219788F7B12C8B2D19
:10294000DF91CF911F910F91FF90EF90DF90CF908B
:10295000BF900895B8018C2F0E94E512019761F392
:10296000EECFCF93DF93EC010E946F14BE01DF9195
:10297000CF910C94E5120E94B1140C94D4091F93CA
:10298000CF93DF9300D000D00F92CDB7DEB749834D
:102990005A8389819A816623B9F02223A9F00E9483
:1029A0006F14182F682F89819A810E946F0969819D
:1029B0007A81812F0F900F900F900F900F90DF91E1
:1029C000CF911F910C94C9120E944209182FEFCF8A
:1029D000CF93C92F682F84E090E00E9475366C2F4A
:1029E00082E290E0CF910C9475369091E80292FBD0
:1029F000222720F9281751F080FB92F99093E802E2
:102A00008091E7029091E8020C94E81408950F93E6
:102A10001F93CF93DF9302E812E0C0E8D2E0CE012B
:102A20000E946736F80161918F01681719F0CE0195
:102A30000E9475362196C23AF2E0DF0781F7DF91F6
:102A4000CF911F910F910895E2E8F2E0128E138E5C
:102A50008FEA90E09183808385E0848F88E893E11A
:102A6000938382832CE231E03583248382E390E0F8
:102A70009783868385E090E0918780878AE090E065
:102A80009387828744E150E05587448737872687BC
:102A900024E630E0318B208B28E030E0338B228B32
:102AA00028E230E0358B248B28EC30E0378B268B06
:102AB000318F208F158E978F868F80E590E091A3C0
:102AC00080A30E9407150C944412CF93DF93C8EEA5
:102AD000D2E060E0CE010E9475362196C11584E0F7
:102AE000D807B9F7DF91CF9108950F931F93CF9334
:102AF000DF938901853068F5623058F5423048F53A
:102B000001152CE5120731F420912403309125039F
:102B1000232BF9F028E0829FC001112424E0629F5A
:102B2000B0011124860F971FC42FD0E0CC0FDD1FFA
:102B3000C80FD91FC85ADD4F612FCE010E947536CC
:102B4000602FCE010196DF91CF911F910F910C94D0
:102B50007536DF91CF911F910F9108950F931F93B9
:102B6000CF93DF938901853048F5683038F54730D9
:102B700028F521153C4531F420912403309125039B
:102B8000232BE1F0C42FD0E0CC0FDD1F9EE0699F26
:102B9000C00DD11D112490E7899FC00DD11D1124B6
:102BA000612FCE0188960E947536602FCE018996DE
:102BB000DF91CF911F910F910C947536DF91CF91DA
:102BC0001F910F9108951092A502E2EAF1E086E0CC
:102BD000DF011D928A95E9F70C941A0B1F93CF938E
:102BE000DF93CDB7DEB7AA970FB6F894DEBF0FBE5E
:102BF000CDBF86E393E02091F100DC012D93CD0160
:102C0000B3E08E339B07B9F780913703833009F423
:102C100071C0B8F4813009F448C0823009F4B2C000
:102C20008091E80083FF3AC1809136039091370389
:102C30009A3008F033C1E92FF0E0EF53F94C0C94CF
:102C400031368A3009F48DC08B3009F470C0893078
:102C500039F780913603813219F780913A039091C8
:102C60003B03009711F00297D9F68091E800877F27
:102C70008093E8008091E80082FF37C09091F300D4
:102C80008091F200029729F48091F1008B7F8130CE
:102C900021F48091F10080932A038091E8008B77E2
:102CA0008093E8000E947106BBCF80913603813A81
:102CB00009F0B6CF8091E800877F8093E80080918B
:102CC0003A0390913B03892B61F468E08BE293E037
:102CD00070E00E9423078091E8008B778093E800E2
:102CE0009FCF60E090E080E0F3CF80913E038111C0
:102CF000C1CF96CF80913603813A09F091CF809170
:102D00003A0390913B03892B09F08ACF8091E80028
:102D1000877F8093E8008091E80080FFFCCF80915E
:102D200023018093F1008091E8008E77B9CF8091E4
:102D30003603813209F074CF80913A0390913B03BE
:102D4000892B09F06DCF8091E800877F8093E800A0
:102D50000E94710680913803809323010E94E3153D
:102D60005FCF80913603813209F05ACF8091E8001D
:102D7000877F8093E8000E947106809139038093D9
:102D800029034ECF80913603813A09F049CF8091D3
:102D9000E800877F8093E8008091E80080FFFCCF07
:102DA00080912903BECF803899F0823809F076C02F
:102DB00080913A038F70873008F070C08093E900EB
:102DC0008091EB0085FB882780F91092E90006C00E
:102DD0008091330390913403911182609091E800C7
:102DE000977F9093E8008093F1001092F10080911A
:102DF000E8008E77CAC1882309F4B7C1823009F090
:102E00004DC0809138038111BBC180913A038F700E
:102E10002FEF280F263008F041C08093E900209161
:102E2000EB0020FFADC1933031F48091EB00806264
:102E30008093EB00A5C19091EB0090619093EB0023
:102E400021E030E001C0220F8A95EAF72093EA00E2
:102E50001092EA008091EB008860EACF81111EC0D9
:102E6000109138031F778091E3008078812B809345
:102E7000E3008091E800877F8093E8000E9471065C
:102E80008091E80080FFFCCF8091E3008068809310
:102E9000E30082E0111183E080933E038091E8001B
:102EA00083FF0AC08091E800877F8093E8008091CB
:102EB000EB0080628093EB00AA960FB6F894DEBF19
:102EC0000FBECDBFDF91CF911F9108958058823002
:102ED00028F720913803309139032C3DE3E03E0779
:102EE000A1F583E08A838AE289834FB7F894DE01F3
:102EF000139620E03EE051E2E32FF0E050935700BC
:102F0000E49120FF03C0E295EF703F5FEF708E2FDA
:102F100090E0EA30C0F0C7968D939D932F5F2431E7
:102F200059F74FBF8091E800877F8093E8006AE2FD
:102F300070E0CE0101960E9423078091E8008B7714
:102F40008093E800ABCFC096E7CF80913A03909191
:102F50003B03432F55274330510509F44AC078F508
:102F60004130510509F485C08FEB90E0E3EBF7E0C9
:102F70004230510509F092CF2091E800277F20933D
:102F8000E80020913C0330913D038217930708F439
:102F90009C0140E02115310509F070C041116EC05F
:102FA0008091E80082FDC9CF80913E03882329F2F9
:102FB000853019F28091E80083FFF2CFBECF413215
:102FC000510509F447C04232510509F067CF8330FB
:102FD000910508F063CFFC01EE0FFF1FEE56FE4F88
:102FE0000190F081E02D81579E4FDC018C9190E0A3
:102FF0001DC0332721303105E9F02115310579F065
:1030000022303105F9F02330310509F047CFE4E8EB
:10301000F8E0E4918E2F90E0E4E8F8E007C0E0EDFE
:10302000F8E0E4918E2F90E0E0EDF8E0009709F4ED
:1030300035CFA2CFE2EBF8E0E4918E2F90E0E2EB07
:10304000F8E0F4CFE2EAF8E0E4918E2F90E0E2EAD3
:10305000F8E0ECCF8330910508F020CF880F991F5E
:10306000FC01E856FE4F0190F081E02D89E090E0F0
:1030700083CF82E190E0E2E7F8E07ECF80913E03EB
:10308000882309F45ACF853009F457CF8091E8009E
:1030900083FD53CF8091E80082FD82CF8091E800CC
:1030A00080FF78CF9091F3008091F20021153105D7
:1030B00019F08830910550F041E0089709F040E0A0
:1030C0008091E8008E778093E80064CF449140932C
:1030D000F1003196215031090196E8CF803809F08E
:1030E000DDCE8091E800877F8093E80080913503F2
:1030F0008093F1007CCE8111D1CE10913803123033
:1031000008F0CCCE8091E800877F8093E800109390
:1031100035030E947106112311F084E005C08091EF
:10312000E30087FDFACF81E080933E0342E061EC4B
:1031300081E00E94900642E261EC84E00E949006E9
:1031400042E261EC82E00E94900642E260EC83E0A1
:103150000E94900642E361E885E00E94900642E307
:1031600061E886E00E94900699CE80913803813014
:1031700009F094CE81E0933009F080E0809334032D
:103180001092E9008091E800877F8093E8000E9418
:10319000710684CE5F926F927F928F929F92AF92D0
:1031A000BF92CF92DF92EF92FF920F931F93CF9334
:1031B000DF93CDB7DEB764970FB6F894DEBF0FBECE
:1031C000CDBFA0902403B090250381E090E09093C0
:1031D0002503809324038FE3882E82E0982E97E6C0
:1031E000C92E92E0D92E10E0760100E015C0F3015F
:1031F00025913491452D602F812F0E94AE1582E0DC
:10320000680E711C5394E7E05E12F1CFFEE0EF0E02
:10321000F11C0F5F083019F03701512CE8CF740111
:1032200000E0F7012591349140E0602F812F0E944A
:103230007515F70132962591349141E0602F812F69
:103240000E94751584E0E80EF11C013009F06EC093
:10325000E8E08E0E911C1F5FF0E7CF0ED11C1530F9
:1032600009F0C2CF0E9424151A8219821C821B8287
:103270001E821D8218861F8288EC90E09A878987BB
:103280004AE050E062EA72E0CE0101960E9499366F
:103290004AE050E06CEA72E0CE0101960E94993655
:1032A0004AE050E066EB72E0CE0101960E9499364A
:1032B0008E01055F1F4F8AE0F80111928A95E9F7A8
:1032C0004AE050E060EC72E0C8010E9499364AE0A2
:1032D00050E06AEC72E0C8010E9499364AE050E082
:1032E00064ED72E0C8010E9499364AE050E06EED4C
:1032F00072E0C8010E949936B0922503A09224037F
:1033000064960FB6F894DEBF0FBECDBFDF91CF91AC
:103310001F910F91FF90EF90DF90CF90BF90AF90F3
:103320009F908F907F906F905F90089501E079CF8C
:103330006AEE7EEF90E080E00E94933660E082E0EB
:1033400090E00E94753660E083E090E00E94753660
:103350001092AA021092AB021092AC021092AD022F
:1033600060E084E090E00E94753660E082E290E0E8
:103370000E94753660E085E090E00E94753660E05E
:1033800086E090E00E9475366FEF87E090E00E9443
:10339000753640E050E0BA0188E090E00E94873640
:1033A00060E08DE090E00E94753640E050E0BA01A8
:1033B00088E190E00E94873660E087E190E00E941B
:1033C000753640E050E0BA018CE190E00E9487360B
:1033D00070E060E080E290E00E94933640E050E0D0
:1033E000BA0188E190E00E94873640E050E0BA01DF
:1033F0008FE090E00E94873640E050E0BA0183E120
:1034000090E00C9487369B01843070F49AE0899F99
:10341000B001112460547D4F4AE050E0C9010E9480
:10342000573690E080E008958FEF9FEF08952F9238
:103430003F924F925F926F927F928F929F92AF9244
:10344000BF92CF92DF92EF92FF920F931F93CF9391
:10345000DF93CDB7DEB764970FB6F894DEBF0FBE2B
:10346000CDBF7C01DC0113964D915C9114971196B0
:103470006C9111978C910E94BF09811165C121E067
:10348000F701408151816281738184810E94BF1460
:103490008C01D70112968C918111F9C0F7014281FC
:1034A000411135C10031BFE51B0709F4DDC1013110
:1034B000EFE51E0709F4DCC1C80197558F3F910560
:1034C00011F008F03FC020910601022E000C330BD2
:1034D0002817390714F48093060126E1289F50012C
:1034E000299FB00C1124F501EE53FE4F6F01408B64
:1034F000D70112969C918681992309F4BBC112874A
:1035000001878F5F86830E94A008F60196878587D2
:103510008091A90287838091A6029091A502892BB0
:1035200080870190F081E02D309741F0D6015496CC
:103530006D917C91C50188539E4F09951093C101EF
:103540000093C001D70112968C91882369F0C801BD
:10355000815E9C45059740F46FE1600F6093E9023E
:103560008CE090E00E94753617FFC4C1F70182819C
:10357000882309F462C0E091F502F091F60280E040
:10358000309721F00190F081E02D099586958170AA
:10359000809305029091E902913029F4882319F073
:1035A00089E30E947C0F8091A5028093040210920F
:1035B000A5028091E902813009F46DC1882309F4E4
:1035C00066C1823009F476C1843009F47AC18FE390
:1035D0009CE90197F1F700C000005801E894B7F8A2
:1035E000ECE0CE2ED12CC5010C2C02C0969587950F
:1035F0000A94E2F78F7096EF980F963008F466C140
:10360000805D0E94041094E0C91AD108ACEFCA167C
:10361000AFEFDA0641F78091E902813009F45CC12D
:10362000882309F455C1823009F452C1843009F469
:103630005FC1809104028093A5024090070144205D
:1036400009F465C11092190210921802512C65E01C
:10365000362E88248394912C22242394A09018023F
:10366000B0901902F4E0AF16B10408F4BDC1809126
:103670001702882309F470C20E94A00890931602D2
:103680008093150210921702511052C040C18091D0
:1036900006018F3F09F402CFA2ECCA2EA1E0DA2E78
:1036A000B12CA12C9924939480910601082E000C32
:1036B000990B8A159B050CF4F1CED60116968C91C8
:1036C00016978823E9F019968D919C910817190790
:1036D00039F48091C0019091C1010817190781F058
:1036E000F6019786148703878189811103C0C6017B
:1036F0000E944D0AC60106960E946E0A1092A6020A
:10370000FFEFAF1ABF0A26E1C20ED11CCDCFC80110
:1037100082519F45409708F04BC78FEF93E00E947E
:103720006736FEEEDF2ED00E08EE12E0882389F118
:1037300080918102877041F0D70112968C91882385
:1037400019F082E00E94800B64960FB6F894DEBFF9
:103750000FBECDBFDF91CF911F910F91FF90EF90E2
:10376000DF90CF90BF90AF909F908F907F906F90A1
:103770005F904F903F902F900895011534E013070C
:10378000B9F2C8010E946736811101C0DA940F5F57
:103790001F4FD110F2CF19821A821B821C82CC24B7
:1037A000CA9448014FEF841A940AC8010E946736F0
:1037B00089831A82882309F4BBCF813009F048C07D
:1037C000580152E0A50EB11CC4010E946736982E24
:1037D0008A83882309F4ACCFC5010E946736D82EAE
:1037E0008FEF890D833068F4580183E0A80EB11C77
:1037F000DB82DD2021F0CE0101960E94EB118501D4
:10380000D0CF94E09912FBCF5801A4E0AA0EB11CCE
:10381000C80103960E946736DD2009F489CF88230A
:1038200009F486CF8150990BC89E9001C99E300D36
:103830001124ED2DE150FF0BCF01820F931F019753
:10384000F0F2AFE9BFE01197F1F700C00000F7CF49
:10385000CE0101960E94EB115401D1CF81E00E946C
:103860009C0B0E94410B64CF81E00E945D0BF9CF5D
:1038700082E0FBCF882309F465CE8189882309F48F
:1038800061CEC50188539E4F0E946E0A5BCE82EEC8
:103890000E94990D9CCE88E193E00E949C0E80913D
:1038A000A0029091A1020E946A1088E193E00E9418
:1038B000870E8DCE82EE0E94990D87E50E947C0FC7
:1038C00086CE86EE0E947C0F88E1F8CF895A99CE89
:1038D00082EE0E94600CADCE8CE20E947C0F809143
:1038E0000502882309F4A5CE89E30E947C0FA1CEAE
:1038F00088E2FBCF073FBCE51B0709F060C0F7017A
:103900008281882309F499CE81E080930701809118
:103910009D0280FF35C00E94A0086C01F7018281E2
:10392000882311F18091080182FF06C040E0B601B2
:1039300090E080E00E94741082E00E94D1080B3178
:10394000FCE51F0709F42DC10C312CE5120709F421
:1039500073C190910801892F8E7F90FF81600A3199
:103960003CE5130709F46BC10832110508F06DC17D
:103970000E31110508F0AFC10430110508F078C10F
:10398000033FFCE51F0709F4DEC108F0C6C1083D8E
:103990003CE5130709F4D1C1093D4CE5140709F4CE
:1039A000E4C1073D5CE5150709F000C106E221EE20
:1039B00041EE67ED7CE5C7010E949D0FB9CE083F3F
:1039C000FCE51F0709F001C6D70112968C918823E8
:1039D00009F433CE109207011092160210921502CC
:1039E00081E00E94B10E93CF3A9CF0013B9CF00D18
:1039F0001124ED52FD4FBE01655F7F4F80810E9413
:103A0000031A892B61F0712C57288091180290912C
:103A10001902019690931902809318021FCEFE019D
:103A20003B9690E080E066246A94282F4191519162
:103A30004115510589F10417150709F4682E0196FF
:103A40008430910591F724E0FFEF6F16E1F2D70182
:103A500012967C903A9CC0013B9C900D1124FC0175
:103A6000ED52FD4F6F018481A40102C0440F551F28
:103A70002A95E2F79A01215031097720A1F1A4019A
:103A800001C0440F6A94EAF7842B84838F778217EE
:103A9000130631F0742CB8CF823008F4B4CFD4CFF1
:103AA00080E00E94B10ED60114968C911497806824
:103AB00014968C93149712968D919C91009729F0EF
:103AC0000E949C0E209217029FCFBE016F5F7F4F16
:103AD000809118020E94031A892BA1F789859A8583
:103AE0000E940E27EFCF8F778217130631F4828161
:103AF0009381009719F10E94870E3A9CF0013B9C3C
:103B0000F00D1124ED52FD4F4481242F30E0062C9E
:103B100002C0359527950A94E2F720FF74CFC401BF
:103B200001C0880F6A94EAF780958423848387FF15
:103B30006ACF803809F0AECF1482ACCFBE016F5F80
:103B40007F4F809118020E94031A892BB1F6898554
:103B50009A850E94DF26D1CF511006C081E00E94D5
:103B6000B10E0E94B30AD3CED70112968C9188234E
:103B700009F4DECD0E94A0089093160280931502EE
:103B8000E0911402E73008F0D3CD81E08E0F8093EE
:103B90001402F0E0EE0FFF1FEA5FFD4F1183008378
:103BA000C7CD80910801816080930801F7013281BF
:103BB000332309F419C510921E020230FCE51F07D9
:103BC00008F446C506312CE5120730F0C8018A5FBB
:103BD0009C45099708F03CC50E9436129093E80274
:103BE0008093E70200313CE5130709F46CC108F04B
:103BF000FFC008305CE5150709F45BC108F0CEC0D2
:103C000004309CE5190709F44CC108F0B4C0023037
:103C1000BCE51B0709F43FC18091E70282600330D5
:103C20001C4509F43BC18091E7029091E8020E9493
:103C3000E8140E94E3157CCD809108018E7F80936B
:103C4000080182E00E94D108B1CF0933110560F468
:103C50000D32110520F40B32110509F091CE80913F
:103C60009D0282FD8DCE08C004361105C1F388CEB9
:103C700080919D0284FD84CED70112968C91882379
:103C800009F445C08091080180FF7ACE90919D0291
:103C900091FD04C02091A502211172CE95FF26C08E
:103CA00096FD02C081FD22C020911C0230911D02B0
:103CB000F601E21BF30BE83CF105C0F420911A0277
:103CC00030911B020217130789F481FD09C0802F70
:103CD0000E94990D2DCD80919D0283FD51CECCCFB8
:103CE0008091A60282608093A602F1CF10931B02FE
:103CF00000931A02D0921D02C0921C02809108010A
:103D000084608093080182E00E94800B11CD40E026
:103D1000B601C8010E9474100BCD053F8CE5180751
:103D2000F1F0B8F0063FACE51A0709F03FCF07E223
:103D300025EE46EE66EF7CE53ECE07E225EE45EE4B
:103D400068ED7CE538CE06E221EE40EE63EF7CE5DF
:103D500032CE07E225EE44EE64EF7CE52CCE06E29F
:103D600021EE42EE65EF7CE526CE08E221E045EE4D
:103D700069ED7CE520CE8091E70280610630FCE5AC
:103D80001F0709F48BC08091E702886007301C454B
:103D900008F484C08091E702806280C08091E702CD
:103DA0008D7F0C303CE5130709F478C070F48091E6
:103DB000E7028C600A305CE5150709F46FC008F46F
:103DC0007CC08091E7028E7F69C08091E702877F87
:103DD0000E309CE5190709F461C08091E7028B7FE2
:103DE0000F301C4508F45AC08091E7028F7E56C000
:103DF0000B3FBCE51B0709F458C030F50331FCE567
:103E00001F0709F468C078F401313CE5130709F491
:103E10005EC002311C4509F006CF0E94E315809177
:103E2000E7028F773BC005315CE5150709F45BC0FD
:103E300008F46FC08091E80281600A3F1C4509F0D8
:103E4000F2CE8093E802EFCE0F3FACE51A0709F4FB
:103E500046C088F48091E8028D7F0D3FECE51E0797
:103E600081F38091E8028E7F0E3F1C4550F38091D4
:103E7000E8028360E6CF01302DE5120709F452C055
:103E8000F0F160E002301D4509F0CDCE8EE090E00B
:103E90000E947536C8CE8091E70281608093E70268
:103EA000C2CE8091E7028460F9CF8091E8028260FF
:103EB000C8CF8091E7028064F1CF0E94E315809122
:103EC000E7028068EBCF8091E7028F7DE7CF80919A
:103ED000E7028F7BE3CF8091E702837FDFCF809182
:103EE000E8028C7FAECF8091E70282FB992790F9A0
:103EF00021E0922790FB82F990FB83F9CFCF80914C
:103F0000E802982F909591708E7F892B90FB81F914
:103F100098CF0E94E3159091E702892F97FB87F9CC
:103F20008058BCCF61E0B2CF80911F0281110FC0D9
:103F300089E2E2EAF1E028EA31E09191891303C0D5
:103F4000DF0111971C922E173F07B9F77EC385E357
:103F5000F0CF0B35BDE51B0701F10C351D4509F010
:103F60008BC38091E80282FB882780F991E0892742
:103F70000E94F51481C30E94E315FFEF24E33CE0A7
:103F8000F15020403040E1F700C000000E94580F7F
:103F90000E949819CDCB81E0EBCF80E0E9CFC8013A
:103FA0000E944209D82E77C3E12FEF70BE2E812FD9
:103FB000807F19F0B29420EFB222CC20C9F0BB2050
:103FC00069F080E2800F883010F081100BC0809182
:103FD000A502B82AB092A5020E940009802F0E9473
:103FE000990D16C08091A602B82AB092A602F4CF0D
:103FF000802F0E94600CBB2059F080E2800F883037
:1040000010F081103EC08B2D0E94D8080E9400093C
:10401000492D4850550B4430510510F40E94410A77
:10402000C8010E94D40981119DC2109221021092F0
:104030002002AA20A9F08091810280FD11C0F70121
:1040400012828595859585950E949C0BC7010E94DB
:10405000171A809181028595859585950E945D0B43
:1040600020E0D7014C9111965C91119712966C91BA
:10407000129713967C91139714968C910E94BF14FB
:1040800063CB8B2D0E94D108C1CFF12FFF70BF2EC3
:10409000812F807F803219F0B29490EFB92288206E
:1040A00031F144244394841409F46FC0CC2009F402
:1040B00079C0DD2009F449C020E0D7014C91119668
:1040C0005C91119712966C91129713967C911397AD
:1040D00014968C910E94BF1480919F0281FD7ECF27
:1040E000F701858180FF7ACF8F7085832EC0CC2029
:1040F00071F1D11006C08091A9028B290E940B0A90
:1041000087CF55245394D51013C08091E80282FDC7
:104110007FCF8091A902B82AB81609F479CF0E94FE
:10412000A0089093A8028093A702B092A90270CF32
:1041300080919E028230F8F2D812DDCF0E94C6082C
:1041400080917E02B812B0927E028B2DD7CFD11013
:1041500006C00E94C6088B2D0E94040A59CF809188
:104160009E0266246394D6100BC0823008F450CFB0
:104170008091A5028B2109F44BCF0E943C09E9CF25
:10418000823038F3D812E5CF43CFCC2031F085E030
:10419000782E7D1408F43CCFD8CF24E02D1508F4F8
:1041A00037CFD9CFDD20B9F2F9E38F12D3C1809197
:1041B000A2029091A3020E946A10802F0E94600CBC
:1041C00027CF812F86958695837061F0813009F025
:1041D0001FCFC8019370C11002C090E080E00E9420
:1041E000150A16CFC8019370C11002C090E080E09C
:1041F0000E942B0A0DCF802FCC2039F00E94310D68
:104200000E94F30A0E94F30A03CF0E94DD0BFACF4B
:10421000812F837009F067C0C110FACE202F22953C
:1042200026952770220F220F402F4F7050E070E02C
:1042300060E0022E04C0440F551F661F771F0A94CA
:10424000D2F780E090E0DC0104FF0FC08FE090E047
:10425000A0E0B0E004C0880F991FAA1FBB1F2A95D9
:10426000D2F780959095A095B095212F269526950B
:104270002370223029F1D8F44090AA025090AB026A
:104280006090AC027090AD02213069F0842B952BC8
:10429000A62BB72BBC01CD01642175218621972166
:1042A0000E94D30BB5CE44295529662977292A01C6
:1042B0003B01482A592A6A2A7B2AC301B201F0CF5E
:1042C000842B952BA62BB72B4090AA025090AB02C3
:1042D0006090AC027090AD02BC01CD0164257525E3
:1042E00086259725DDCF8695CC2011F0812F817012
:1042F000882309F48DCE202F229526952770220F32
:10430000220F402F4F7050E070E060E0022E04C09A
:10431000440F551F661F771F0A94D2F780E090E084
:10432000DC0104FF0FC08FE090E0A0E0B0E004C02B
:10433000880F991FAA1FBB1F2A95D2F780959095C9
:10434000A095B095212F269526952370223029F12E
:10435000D8F440902C0450902D0460902E0470905E
:104360002F04213069F0842B952BA62BB72BBC0191
:10437000CD0164217521862197210E94370B48CEFB
:1043800044295529662977292A013B01482A592AB7
:104390006A2A7B2AC301B201F0CF842B952BA62B6E
:1043A000B72B40902C0450902D0460902E047090F8
:1043B0002F04BC01CD016425752586259725DDCF09
:1043C000212F2F70B22ECC2029F0822F0E949C0B1F
:1043D000802F94CE802F0E94040A8B2D0E945D0BAB
:1043E00017CE802F32EF831609F45BC0381578F0B2
:1043F00040EF841669F151EF851609F44AC0CC20CC
:1044000009F4A3C0D110EACD812F8F7147C093EF7B
:10441000891609F44BC0A4EF8A12F1CF20919E02B5
:10442000223008F47AC080917E02CC2009F462C068
:104430000E94D808809181028770843009F04AC0B8
:104440000E94DF08812F8F710E945D0BA12CE0CDAF
:10445000CC20D1F0B4E0BD1508F4DACD212F2F71B6
:1044600061E070E080E090E004C0660F771F881F75
:10447000991F2A95D2F740902C0450902D046090FB
:104480002E0470902F0497CFE5E0ED1508F4C0CD11
:10449000E5CF812F8F71CC2009F4A0CF0E949C0B17
:1044A000B7CD812F8F71CC20C9F398CF60E070E039
:1044B000CB01CC2009F461CF212F2F7161E070E096
:1044C00080E090E004C0660F771F881F991F2A952F
:1044D000D2F753CF80919E02D81608F0B7CFF12FB4
:1044E000FF71BF2E8F2F0E949C0B63E08B2D0E94CB
:1044F000BD0BACCF9091A502982B9093A502D2163C
:1045000040F00E94DF080E943C0964E0812F8F7117
:10451000EECF81E00E94800B99CFCC2059F0212F63
:104520002F71B22E822F0E949C0B63E08B2D0E9474
:10453000BD0B6ECD81E00E94800B31E03D1508F08F
:1045400067CD82E00E94800B63CDDD2041F089338E
:1045500009F42DCE8091A0029091A1022CCE812F42
:104560008F713CCFCC2019F0D1105FCD62CDD1102E
:104570005CCD20E0D7014C9111965C911197129679
:104580006C91129713967C91139714968C910E94BC
:10459000BF1480919F0283FF48CD809120029091AB
:1045A0002102029709F041CD802F0E947C0F3DCD62
:1045B0000031FFE51F0709F451C901312FE512074A
:1045C00011F00C945C1A82E04AC9093F3CE51307DC
:1045D00009F033C8F7018281882309F42EC880913D
:1045E00007018111F7C990C906311C4509F044C083
:1045F0008091A502982F9A7A20919C0220FF04C0F6
:10460000482F447409F090E021FF04C0482F417105
:1046100009F090E022FF04C0482F487809F090E0AC
:1046200023FF03C0827209F090E0332309F47CCCAD
:1046300081E0911101C080E080931F0269E2911135
:1046400065E380EA91E00E94AC080E94000970C80E
:1046500006315CE5150761F20A355DE5150709F4D9
:104660009ACC08F076CC01159CE5190709F483CCA7
:104670000E3D1C4509F48CCCF7018281008111812B
:10468000882309F48CCCC8010E946F14D82E682F9F
:10469000C8010E946F09B8018D2D0E94E5128C019E
:1046A000882ED7011296CC9012971596DC90D29452
:1046B0004FE0D422809181028770A1F0AC2CCC20F5
:1046C00091F0812F807F803421F080E2800F88304C
:1046D00048F082E00E94800B809181028770AA24BA
:1046E000A3948111A12C912E92943FE09322BBE0E0
:1046F000B91508F48DCCE92DF0E0E553F94C0C9494
:104700003136BF92CF92DF92EF92FF920F931F93B9
:10471000CF93DF9380912802807F61F480912502FE
:10472000882341F0C0915A0286E0B82E8091290278
:104730008C130AC0DF91CF911F910F91FF90EF90E2
:10474000DF90CF90BF900895F0902302E090240274
:10475000C0902602D0902702A6016E2D8F2D0E94B8
:10476000BF09D0E0811141C0BC9E8001BD9E100DEB
:104770001124F801E65DFD4F51815E1136C0408184
:104780004F1133C08281811130C0E380F480EC1876
:10479000FD0820E060912502709126028091270299
:1047A0000E94BF1480919A0290919B02E816F9062C
:1047B000E0F4809128028F70806180932802F801D4
:1047C000E15DFD4F80818F708061808383E292E0A4
:1047D0000E94171ADF91CF911F910F91FF90EF90D8
:1047E000DF90CF90BF900C94CA092196C7709ECFDE
:1047F0005F926F927F928F929F92AF92BF92CF9271
:10480000DF92EF92FF920F931F93CF93DF93CDB779
:10481000DEB761970FB6F894DEBF0FBECDBF8C0137
:1048200085E0F801DE011D9601900D928A95E1F771
:10483000D8017C901196EC90119712966C9083E2BF
:10484000A82E82E0B82E8090260290902702A40124
:1048500060912402809123020E94BF098111C7C187
:10486000F801C380D480F0902502C6018819990907
:104870004C0120E04091230250912402FF2009F4D2
:104880005DC16F2D70912602809127020E94BF1496
:1048900080919A0290919B02509028028816990666
:1048A00008F00DC14091260250912702B0902302DA
:1048B000A0902402852D807F6A2D09F0B9C08B2D30
:1048C0000E94BF09F62C81112BC0EA1029C07B1071
:1048D00027C0611025C0852D8F70806180932802CC
:1048E00083E292E00E94171A80912802D80115965F
:1048F0008C938F2D61960FB6F894DEBF0FBECDBF9F
:10490000DF91CF911F910F91FF90EF90DF90CF90AB
:10491000BF90AF909F908F907F906F905F90089521
:1049200020E0409123025091240260912502709171
:104930002602809127020E94BF1480919A029091D2
:104940009B02843F9140F8F0A6016E2D872D0E94B6
:10495000BF09811154C081E0862580FF25C0462D06
:104960006E2D872D0E949F098823F1F083E292E04B
:104970000E94171A86E0E3E2F2E0DF011D928A95B9
:10498000E9F7F12CB6CF20E04091230250912402A8
:104990006091250270912602809127020E94BF1427
:1049A00080919F0280FDD0CFA6016E2D872D0E94A1
:1049B000BF09811126C081E08625B82FB170CB2EAA
:1049C00080FF2DC0462D6E2D872D0E949F09D82E69
:1049D000811125C07D86EE868D859E850E94B1144D
:1049E000292F22952F70223070F0243098F49F7078
:1049F00071F0F8019581907F51F4FD2C7ACF80E021
:104A0000ACCF80E0DACF9F7011F08823B1F3805EE5
:104A1000883098F3C8010E94171ADC2CEECF66206C
:104A200009F467CF80912802816080932802A9CF82
:104A30008B2D0E94BF09811115C0EA1013C07B1095
:104A400011C061100FC0D80115965C92C8010E9478
:104A5000171A86E0F801A3E2B2E001900D928A9560
:104A6000E1F747CF7D86EE868D859E850E94BB143B
:104A7000882309F16620F9F080912802803270F0D5
:104A8000209123023091240238872F831986DB86F8
:104A9000CA868C87CE0107960E94171A86E0F80115
:104AA000A3E2B2E001900D928A95E1F70E94812382
:104AB000FF24F3941ECFC8010E94171AF9CF852D49
:104AC000807F09F453CF909023028090240240917C
:104AD000260250912702682D892D0E94BF0981115D
:104AE00011C0E8100FC079100DC061100BC0F801A3
:104AF0005582C8010E94171A86E0D5011D928A9539
:104B0000E9F7F7CE7D86EE868D859E850E94BB14E3
:104B1000882389F2662079F280912802803208F495
:104B2000BDCF20912302309124023A8329831B8236
:104B3000DD82CC828E83CE010196AECF60E0709193
:104B40002602809127020E94BF1480919A029091C0
:104B50009B028816990680F6F62C662009F4ABCFE6
:104B6000D0902302C0902402409126025091270247
:104B70006C2D8D2D0E94BF09811128C0EC1026C01C
:104B80007D1024C020E0472D5E2D6091250270919C
:104B90002602809127020E94BF1480919F0282FD0D
:104BA00058CF9091280290FD54CF907F09F451CFB7
:104BB00080912802F8018583903F09F447CF982F10
:104BC000907F905F8F70892B858340CF7D86EE86A6
:104BD0008D859E850E94BB14811160CF8091280233
:104BE000816080932802C8010E94171A82CE662035
:104BF00009F461CF7D86EE868D859E850E94BB146B
:104C0000F82E882309F457CF86E0F801A3E2B2E03A
:104C100001900D928A95E1F78091230290912402F0
:104C20000E94B1140E94812364CECF92DF92FF9242
:104C30000F931F93CF93DF93CDB7DEB767970FB670
:104C4000F894DEBF0FBECDBFF42E4B8B052F5C8BCF
:104C5000162F6D8B7E8B8F8BCE88DF88A601602F01
:104C60008F2D0E94BF09811109C08091200290916F
:104C7000210201969093210280932002111110923B
:104C8000A6021A8A198AFD860E871F87D98AC88AC2
:104C90008091840290918502892BC1F00E94A00826
:104CA00020917F0230918002821B930B209184021D
:104CB000309185028217930720F08091810282FF54
:104CC0007AC00E94E60881110E94C60886E0FE01B3
:104CD0003D96DE01179601900D928A95E1F7CE017F
:104CE00007960E94F823811111C086E0FE013796D5
:104CF000DE01119601900D928A95E1F74A855B8558
:104D000068858F810E94BF098823A9F016E08091F1
:104D10005A029091290289133BC067960FB6F89406
:104D2000DEBF0FBECDBFDF91CF911F910F91FF90DE
:104D3000DF90CF9008952091290230E0C9010196BB
:104D40008770992740915A024817190699F096E002
:104D5000929FD001939FB00D1124A65DBD4FFE011F
:104D6000319601900D929A95E1F7809329020E9465
:104D7000CA09CCCF0E94E3151092290210925A0260
:104D800086E0E3E2F2E0DF011D928A95E9F7BECF0B
:104D9000819FC0011124865D9D4F0E94F8238823C6
:104DA00009F4BBCF80915A0290E001968770992751
:104DB00080935A02ACCF82E00E94800B82CFCF93C7
:104DC000DF9300D000D00F92CDB7DEB79093B9013A
:104DD0008093B801811520E2920748F40F900F905C
:104DE0000F900F900F90DF91CF910C94870E8EEF64
:104DF00089838A831B820E94A0088160782F9D830B
:104E00008C8349815A816B818D810F900F900F9017
:104E10000F900F90DF91CF910C941526CF93DF93D5
:104E200000D000D00F92CDB7DEB79093B901809338
:104E3000B801811520E2920748F40F900F900F906F
:104E40000F900F90DF91CF910C949C0E8EEF898381
:104E50008A8381E08B830E94A0088160782F9D83E4
:104E60008C8349815A816B818D810F900F900F90B7
:104E70000F900F90DF91CF910C941526AF92BF92B7
:104E8000CF92DF92EF92FF920F931F93CF93DF9316
:104E9000B82EA62EC0902C04D0902D04E0902E04A5
:104EA000F0902F048091AA029091AB02A091AC02E5
:104EB000B091AD02C82AD92AEA2AFB2ACFE1D0E074
:104EC000D701C6010C2E04C0B695A7959795879576
:104ED0000A94D2F780FF20C04A2D6B2D8C2F0E94A0
:104EE0006A128C0181309105B9F00E940E278FE380
:104EF0009CE90197F1F700C00000C8010E94DF267D
:104F000081E0DF91CF911F910F91FF90EF90DF90A3
:104F1000CF90BF90AF900895219790F64A2D6B2DBA
:104F200080E00E946A12EC010E940E278FE39CE948
:104F30000197F1F700C00000CE01E0CFCF93DF93DF
:104F4000EC010E940E278091A0029091A1020E9484
:104F50006A10CE01DF91CF910C94DF269B01833044
:104F600070F49AE0899FB00111246E557D4F4AE09C
:104F700050E0C9010E94573690E080E008958FEF1D
:104F80009FEF08958F929F92AF92BF92CF92DF9240
:104F9000EF92FF920F931F93CF93DF93CDB7DEB7BE
:104FA0002A970FB6F894DEBF0FBECDBF02EC11E01A
:104FB000F12CE12C88E1C82E88E2D82E92E4A92EAB
:104FC00098E2B92E2EEB822E28E2922EF801D182A1
:104FD000C082B382A28295828482F58AE48ABE016D
:104FE0006F5F7F4F8E2D0E94AE27892B29F4898514
:104FF0009A85F801938B828BFFEFEF1AFF0A0A5E06
:105000001F4F83E0E816F10409F72A960FB6F894CB
:10501000DEBF0FBECDBFDF91CF911F910F91FF90EB
:10502000EF90DF90CF90BF90AF909F908F900895BA
:105030000F931F93CF93DF938C01862F6EEA71E05D
:105040000E94AE27892BC9F4C091AE01D091AF0167
:10505000209799F0F8018081833069F4CE010E9495
:105060009E27CE010E949E27CE01DF91CF911F91F6
:105070000F910C949E278430B8F7DF91CF911F9148
:105080000F9108950F931F93CF93DF938C01EB0142
:105090006EEA71E08C2F0E94AE27892B09F064C064
:1050A000FE01FF27D8018C91E555FE4F8130D9F4E0
:1050B00019969C911997992311F080830CC01A9628
:1050C0009C919923D1F382E080838091B0019091EB
:1050D000B1010097D9F48091AE019091AF01009792
:1050E00009F442C013C08230E9F519968C911997E2
:1050F00081112DC01A968C9181110EC083E080839E
:105100008091B2019091B301009719F1DF91CF9195
:105110001F910F910C940E2784E080838091B4013D
:105120009091B501009791F78091AE019091AF01F8
:105130000097F9F00E949E278091B0019091B101F3
:10514000009721F78091AE019091AF01DFCF85E00C
:1051500080838091AE019091AF01009729F00E9469
:105160009E27F0CF86E08083DF91CF911F910F9132
:1051700008958091B0019091B101B1CF0F931F9329
:10518000CF93DF938C01EB016EEA71E08C2F0E94CC
:10519000AE27892BA1F48091A0029091A1020E94D8
:1051A0006A10DD27C555DE4F8881F801108218820C
:1051B000833009F148F4813059F0823081F0DF9179
:1051C000CF911F910F9108958430D1F08530B9F7B8
:1051D0008091AE019091AF01009789F306C0809154
:1051E000B0019091B101009799F3DF91CF911F9198
:1051F0000F910C94DF268091B2019091B301F3CF0F
:105200008091B4019091B501009779F72091AE019A
:105210003091AF018091B0019091B101211531051C
:10522000D9F2009711F7C901E0CF7F928F929F9238
:10523000AF92BF92CF92DF92EF92FF920F931F93A4
:10524000CF93DF93CDB7DEB7AF970FB6F894DEBF3D
:105250000FBECDBF962FBA012132310508F0AAC08A
:1052600040EF49831A821B821C82790142E0E40EDE
:10527000F11C0CE210E00E191F09A1E0B0E0AC0F28
:10528000BD1F0A0F1B1FF80180839183A901C8016C
:1052900002960E944736C70167E070E00E94093617
:1052A0009B01B801FE01319650E040E0241735071C
:1052B00009F094C0C70167E070E00E940936A901B7
:1052C00063E0440F551F6A95E1F70097B1F1E5E0FF
:1052D000F0E0EC0FFD1FE40FF51F1082A7E0A29F86
:1052E000B001A39F700D1124060F171FDA01159648
:1052F000CC24C394D12CCC0EDD1ECA0EDB1E70E074
:1053000060E0D801FD908D016F5F7F4F2F2D2078D9
:1053100030E0062E02C0359527950A94E2F73081D9
:10532000232B20832F2D2F77D6012D936D018617E8
:10533000970739F70196480F591F5A01B5E0AB0E90
:10534000B11CE5E0F0E0EC0FFD1F4E0F5F1F87EF93
:10535000DA018C93F12CE12C1DA61EA61FA6650177
:10536000CE18DF08B4E0CB16D10418F083E0C82EC5
:10537000D12C61E070E06C0F7D1F6E0D7F1DA601CA
:10538000CE018D960E944736E0913F03F091400395
:105390000FA52EA54DA5B6018FE393E00995E3E097
:1053A000EE0EF11CEA14FB04B8F20FB6F894DEBF5F
:1053B0000FBECDBFAF960FB6F894DEBF0FBECDBF08
:1053C000DF91CF911F910F91FF90EF90DF90CF90E1
:1053D000BF90AF909F908F907F90089514825F014F
:1053E00085E0A80EB11C6B0190E080E0D6017D90B5
:1053F0006D010196A72DA078B0E0082E02C0B595EA
:10540000A7950A94E2F7B481AB2BA483E89477F8CC
:10541000D5017D925D018730910541F74F5F5F4F68
:10542000695F7F4F389642CF2F923F924F925F92A3
:105430006F927F928F929F92AF92BF92CF92DF92A4
:10544000EF92FF920F931F93CF93DF93CDB7DEB709
:10545000A4970FB6F894DEBF0FBECDBFF90164501C
:10546000710990E080E0841708F05AC077FD34C1DC
:10547000DF01A80FB91F3C91373F09F025C1462F26
:105480004770542E5B0153E0B694A7945A95E1F708
:1054900027E02A9DC0012B9D900D11249C014423DF
:1054A00021F0240F311D215031096230710514F1B2
:1054B000DE0111964EEA242E42E0342E10E000E088
:1054C0003D010A151B0509F04BC0552099F0687F76
:1054D000AB0142555D4F7A01DA01860D971D70E0F0
:1054E00060E0E52DE150FF0B8F0111966017710709
:1054F00008F45CC08981823360F5803388F481319F
:1055000079F048F4803109F467C0AE014F5F5F4F16
:1055100060E080E882C0803209F459C08132A9F786
:10552000A4960FB6F894DEBF0FBECDBFDF91CF912A
:105530001F910F91FF90EF90DF90CF90BF90AF90B1
:105540009F908F907F906F905F904F903F902F90A3
:1055500008958034D0F2823418F38038B1F6E0CF69
:10556000F1018080912C6D0141E050E07101E40E69
:10557000F51EF7014080E89447F87401042E01C03D
:10558000EE0C0A94EAF7FE2DF078EF2EE428F601EF
:10559000E1926F014F5F5F4F4830510539F70F5F60
:1055A0001F4F1796F8E02F0E311C8BCF6F5F7F4F88
:1055B000F7014081062E01C0440F0A94EAF74078B3
:1055C0005C915F77452BFC014193CF018ECF8A819F
:1055D000823061F08430B1F0EA81E150ED3008F0C2
:1055E0009FCFF0E0E952F94C0C9431366B8183E0A7
:1055F00090E00E9475366B8170E090E080E00E9440
:10560000D30BEACF8B8190E00E94E814E5CF30E025
:1056100020E050E040E061E081E10E94152980CF68
:1056200082E090E00E94673689A321E030E0AE017D
:105630004F5D5F4F68E0F0CF83E090E00E946736F7
:1056400089A321E030E0AE014F5D5F4F62E0E4CF1F
:1056500060912C0470912D0480912E0490912F0460
:105660000E94373669A37AA38BA39CA324E030E081
:10567000AE014F5D5F4F63E0CFCF30E020E050E000
:1056800040E069E0C9CF30E020E050E040E065E074
:10569000C3CF30E020E050E040E066E0BDCF0E94A4
:1056A000361289A321E030E0AE014F5D5F4F64E028
:1056B000B3CF88E089A387E08AA322E030E0AE017F
:1056C0004F5D5F4F6DE0A8CF653271050CF028CFBC
:1056D000DB01A255BD4F3C936F5F7F4F0196C3CE58
:1056E0001F920F920FB60F9211242F933F934F9357
:1056F0005F936F937F938F939F93AF93BF93CF935A
:10570000DF93EF93FF93D091E900DF708091EC007D
:10571000C82FC17080FDC0E81092E9008091F000B0
:10572000877F8093F00078940E94EE151092E90034
:105730008091F00088608093F000CD2BCF70C093F3
:10574000E900FF91EF91DF91CF91BF91AF919F91D0
:105750008F917F916F915F914F913F912F910F901A
:105760000FBE0F901F9018951F920F920FB60F92B9
:1057700011242F933F934F935F936F937F938F9356
:105780009F93AF93BF93EF93FF938091E10082FFCC
:1057900009C08091E20082FF05C08091E1008B7F0B
:1057A0008093E1008091DA0080FF24C08091D800CE
:1057B00080FF20C08091DA008E7F8093DA00809194
:1057C000D90080FF9BC080E189BD82E189BD09B419
:1057D00000FEFDCF81E080933E038091280381117C
:1057E00009C00E94A5050E94C2068091E200846063
:1057F0008093E2008091E10080FF17C08091E20079
:1058000080FF13C08091E2008E7F8093E200809140
:10581000E20080618093E2008091D80080628093F2
:10582000D80019BC85E080933E038091E10084FF9D
:1058300029C08091E20084FF25C080E189BD82E11A
:1058400089BD89B5982F917080FFFBCF8091D800DA
:105850008F7D8093D8008091E1008F7E8093E1005E
:105860008091E2008F7E8093E2008091E20081606F
:105870008093E20080913503882309F445C084E0D9
:1058800080933E038091E10083FF27C08091E20076
:1058900083FF23C08091E100877F8093E10082E055
:1058A00080933E03109235038091E1008E7F8093B8
:1058B000E1008091E2008E7F8093E2008091E2001F
:1058C00080618093E20042E060E080E00E94900608
:1058D0008091F00088608093F000FF91EF91BF917C
:1058E000AF919F918F917F916F915F914F913F9178
:1058F0002F910F900FBE0F901F90189519BC10920A
:105900003E031092280376CF8091E30087FD93E059
:1059100090933E03B7CFCDB7DEB7E5970FB6F894B7
:10592000DEBF0FBECDBF10926403109266031092CB
:10593000650380EC8093290487E693E090932B0421
:1059400080932A0410922804109227041092440392
:10595000109243031092460310924503109248039D
:105960001092470310924A031092490310924C037D
:1059700010924B0310924E0310924D03109250035D
:1059800010924F031092520310925103109254033D
:10599000109253031092560310925503109258031D
:1059A0001092570310925E0310925D038BEA97E00A
:1059B0009093400380933F0386E098E090936003C8
:1059C00080935F0383E897E090935C0380935B038D
:1059D00084E897E0909342038093410384E19AE244
:1059E00090935A038093590384B7877F84BF0FB67F
:1059F000F894A8958091600088618093600010926F
:105A000060000FBE80E890E00FB6F89480936100CC
:105A1000909361000FBE85B7806885BF85B78068A9
:105A200085BF81E897E090939F0180939E010E943B
:105A3000C2271092D4021092D30281E090E090939A
:105A4000D9028093D80282E090E09093DE028093A6
:105A5000DD0283E090E09093E3028093E2020E94F3
:105A600044120E94A5050E94C2068091E200846053
:105A70008093E200789480913E038823A1F01091F6
:105A8000E9001F709091EC00892F817090FD80E8F3
:105A9000182B1092E9008091E80083FD0E94EE151A
:105AA0001F701093E90082E084BD93E095BD9AEFEA
:105AB00097BD80936E000CE611E0D8018D918D01A9
:105AC0000E94F60DB1E004371B07B9F704E711E0B7
:105AD000FBE7EF2EF1E0FF2EF80181918F010E948C
