:100000000C9495020C94DC020C94DC020C94DC023F
:100010000C94DC020C94DC020C94DC020C94DC02E8
:100020000C94DC020C94DC020C94FA240C94CE2583
:100030000C94191A0C94DC020C94DC020C94DC0273
:100040000C94DC020C94DC020C94DC020C94DC02B8
:100050000C94DC020C94701A0C94DC020C94DC02FC
:100060000C94DC020C94DC020C94DC020C94DC0298
:100070000C94DC020C94DC020C94DC020C94DC0288
:100080000C94DC020C94DC020C94DC020C94DC0278
:100090000C94DC020C94DC020C94DC020C94DC0268
:1000A0000C94DC020C94DC020C94DC022E022D0079
:1000B0002700260025002400230030002F00130015
:1000C00012000C0018001C002800340033000F0040
:1000D0000E000D000B0037443800370036001000CA
:1000E0001100000029001E001F0020002100220036
:1000F00000002B0014001A00080015001700000073
:10010000390004001600070009000A000000E100A1
:100110001D001B0006001900050000000000000083
:1001200000000000000000000000000000000000CF
:1001300000000000000000000000000000000000BF
:1001400000000000000000000000000000000000AF
:10015000000000000000000000000000000000009F
:10016000000000000000000000000000000000008F
:10017000000000000000000000000000000000007F
:10018000000000000000000000000000000000006F
:10019000000000000000000000000000000000005F
:1001A000000000000000000000000000000000004F
:1001B000000000000000000000000000000000003F
:1001C000000000000000000000000000000000002F
:1001D000000000000000000000000000000000001F
:1001E000000000000000000000000000000000000F
:1001F00000000000000000000000000000000000FF
:1002000000000000000000000000000000000000EE
:1002100000000000000000000000000000000000DE
:1002200000000000000000000000000000000000CE
:1002300000000000000000000000000000000000BE
:1002400000000000000000000000000000000000AE
:10025000000000000000000000000000000000009E
:10026000000000000000000000000000000000008E
:10027000000000000000000000000000000000007E
:10028000000000000000000000000000000000006E
:10029000000000000000000000000000000000005E
:1002A000000000000000000000000000000000004E
:1002B000000000000000000000000000000000003E
:1002C0000000000000000000000000000000005CD2
:1002D000000000000000000000000000000000001E
:1002E000000000002A2B2800000000000000000091
:1002F0000000000000000029000000002C1E342037
:10030000212224342627252E362D3738271E1F205C
:100310002122232425263333362E37381F040506A1
:100320000708090A0B0C0D0E0F10111213141516E5
:100330001718191A1B1C1D2F3130232D35040506E3
:100340000708090A0B0C0D0E0F10111213141516C5
:100350001718191A1B1C1D2F3130354C00000000D6
:10036000000000000000000000000000000000008D
:10037000000000000000000000000000000000007D
:100380007E0F00D4FFFFFFC7000000780E0351006E
:1003900041005A0070006100640000001C034B0023
:1003A000690073006500720020004400650073005E
:1003B000690067006E00730000000403090409026D
:1003C0009F00040100A0FA090400000103010100DC
:1003D0000921110100012240000705810308000ADC
:1003E000090401000103000000092111010001229C
:1003F0007B000705820320000A080B0202010100AE
:1004000000090402000001010000092401000109A3
:100410000001030904030002010300000724010096
:100420000141000624020101000624020202000923
:100430002403010301020100092403020401010154
:10044000000905040240000500000525010101091D
:10045000058302400005000005250101031201107B
:100460000100000008444B70510100010200010529
:10047000010902A10185020901A10005091901294B
:10048000081500250195087501810205010930094B
:10049000311581257F95027508810609381581255A
:1004A0007F950175088106050C0A38021581257FA4
:1004B000950175088106C0C005010980A101850369
:1004C00019012AB700150126B700950175108100A2
:1004D000C0050C0901A101850419012AA00215011A
:1004E00026A002950175108100C005010906A10131
:1004F000050719E029E71500250195087501810216
:100500009501750881010507190029FF150026FFCF
:1005100000950675088100050819012905950575DE
:10052000019102950175039101C011241FBECFEF07
:10053000DAE0DEBFCDBF04B603FE27C0809187039B
:1005400090918803A0918903B0918A038730904BE2
:10055000A740B04BD1F410928703109288031092F9
:10056000890310928A0314BE84B7877F84BF0FB6B5
:10057000F894A89580916000886180936000109243
:1005800060000FBEE0E0F8E3099511E0A0E0B1E003
:10059000EEE6F0E502C005900D92A23AB107D9F758
:1005A00023E0A2EAB1E001C01D92A738B207E1F74B
:1005B0000E94DF210C9400280C9400000C94870604
:1005C000CF93DF939C013A9521153F4168F5EC01EB
:1005D000CC27D170DC01AA27B270AC01442754703B
:1005E0009C012227387094FF11C080E1CD2B09F4C3
:1005F00080E0AB2B09F08062452B09F08064232B4F
:1006000009F08068FB01DF91CF91099481E0CD2B47
:1006100009F480E0AB2B09F08260452B09F084607F
:10062000232B81F38860EECFDF91CF910895CF9394
:10063000DF93EC01805E9109089720F06DE672E18E
:10064000209711F46AE070E1CE010E94E0028C2F45
:10065000DF91CF910C946E0FCF93DF93EC010E944A
:10066000BC0FCE01805E9109089720F064E772E12B
:10067000209711F461E170E1CE01DF91CF910C94EC
:10068000E002CF93DF93EC010E941703CE01DF91CC
:10069000CF910C942C0381E0089581E008950C948F
:1006A0004D0308950C9451031F93CF93DF9300D013
:1006B00000D00F92CDB7DEB749835A836B83309158
:1006C000CF0189819A8131111DC06623B9F022239F
:1006D000A9F00E947B17182F682F89819A810E94A8
:1006E000271769817A81812F0F900F900F900F90BB
:1006F0000F90DF91CF911F910C947C040E945317AF
:10070000182FEFCF0E947B1769817A81EDCFFC0112
:10071000262F408151816281738184810C9454031E
:10072000CF93DF93EC0160E00E948703BE01DF916D
:10073000CF910C9452030E94C418811102C00E94F0
:100740006D190E94440B0C94DE020C9489060895E6
:100750000E9491120E94A7032FEF84E39CE0215096
:1007600080409040E1F700C000000C94941A0F9371
:100770001F93CF93DF93EC0161E00E9487038C010C
:10078000BE010E944F03882359F1BE01C8010E9497
:10079000CF0B882329F1BE01C8010E94590C882380
:1007A000F9F0BE01C8010E94AB0C8823C9F0BE015C
:1007B000C8010E94CE0D882399F08A81882339F0E0
:1007C00001158CE5180751F00F3D1C4579F0CE015D
:1007D000DF91CF911F910F910C944B030E94A803BE
:1007E00080E0DF91CF911F910F9108950E946D19C4
:1007F000F7CFDF92EF92FF920F931F93CF93DF9388
:10080000E82FF0E0E452FD4FD490282F269526954E
:10081000269530E0F901E458FC4F0491877010E010
:10082000082E02C0159507950A94E2F7017011276A
:10083000F901E459FC4FE490F12C082E02C0F59424
:10084000E7940A94E2F791E0E922FF24F901E45ADF
:10085000FC4FC491D0E002C0D595C7958A95E2F7C8
:10086000C170DD270115110519F081EE0E946E0F90
:10087000E114F10419F086EE0E946E0F8D2D0E9496
:100880000210EF2819F086EE0E94BC0F012B19F020
:1008900081EE0E94BC0FCD2B51F08CE2DF91CF9105
:1008A0001F910F91FF90EF90DF900C940210DF9159
:1008B000CF911F910F91FF90EF90DF900895982FA7
:1008C0009F709A50963018F0805D0C94F903895A05
:1008D000FCCF08950C94690481E008950C946C0495
:1008E000CF93C82F0E946A048C2FCF910C946E0472
:1008F00090E080E008950895972F70E027E0929FA0
:10090000600D711D1124FB0198E3899FE00DF11D1D
:100910001124EE0FFF1FE455FF4F85919491089528
:10092000FC01EE0FFF1FE457FC4F85919491089551
:10093000CF93DF930E947C040E94AD05EC018115EA
:1009400020E5920708F042C0811530E4930708F0D3
:10095000BDC0883E910528F5803E910508F09DC0F8
:10096000883A910588F4853A910508F08FC0813066
:10097000910509F492C0009709F48FC0049708F01C
:100980008CC0D0E0C0E089C08F3B910508F489C0DD
:10099000805C9109C03CD105A0F30E949004EC0159
:1009A0007CC08115904250F4C11581E0D80708F051
:1009B00074C0CD3ED10528F3D0656FC0C11590E35A
:1009C000D90708F079C0CE019F70E7CF811525E5E2
:1009D000920758F5811534E5930708F0A6C08115F4
:1009E00042E5940750F4C11581E5D80708F471C0B9
:1009F000DC2FCC27C16FD06A50C0982F9695969562
:100A00009E0123703327C115D34508F07FC0C1E094
:100A1000D0E002C0CC0FDD1F2A95E2F720E2929FC2
:100A2000C0011124C82BD92B6FC0C11589E5D80787
:100A3000A8F4C11598E5D90708F07CC0C11526E5D2
:100A4000D20708F09ECF8C2F0E944406C82FD0E01A
:100A5000DC2FCC27CC27DF71D0621FC0C1153AE54F
:100A6000D30708F46CC0CE0190568115904208F06F
:100A700088CF8D2F8F710E94440690E0982F882791
:100A800088279F719C012C2BE901E6CFC55AD0E045
:100A9000C15BDE4FC881D0E0D064CE01DF91CF9141
:100AA0000895C85AD0E0CC0FDD1FCF5DDE4F09900E
:100AB000D881C02DD464F1CFCE019927D3FF03C0D4
:100AC000EC01D86CEACFEC01D06CE7CFDF70D06AD4
:100AD000E4CFCE01E4E096958795EA95E1F783703F
:100AE0002C2F26952695237090E2299F90011124A2
:100AF000382B8C2F8370C1E0D0E002C0CC0FDD1FFB
:100B00008A95E2F7C22BD32BDC68C7CFC1E0D0E0D7
:100B100002C0CC0FDD1F2A95E2F730E2939FC0019F
:100B20001124C82BD92BDA68B8CFD82FCC27C46FA3
:100B3000D06AB3CFDC2FCC27C06FD06AAECF8C2F5A
:100B40008F700E94440634E0D695C7953A95E1F738
:100B5000CF709C2FEC01D069A0CF82389105B1F104
:100B6000B0F48133910509F475C048F489329105D8
:100B700009F469C08A32910509F473C00895853378
:100B8000910509F459C08933910501F10895833E17
:100B90009105A9F138F4803E9105F9F0823E910566
:100BA00049F10895863E9105A9F1873E9105C9F165
:100BB000843E910519F520918C0221FF1FC0809180
:100BC0008B0284FD14C087EE90E0089520918B0283
:100BD0002370A1F080EE90E0089520918B0220FD1B
:100BE00047C030918C0230FF09C024FF44C090E020
:100BF00080E004C020918B0222FDF7CF0895209160
:100C00008B0222FD3BC030918C0230FDE3CF24FFEC
:100C1000F5CFEDCF20918B0223FFF0CF24FDE7CF5E
:100C2000D2CF20918B0223FD2CC030918C0231FF5A
:100C3000EECF84EE90E0089520918B0225FFDECF69
:100C400089E290E0089520918B0225FFD7CF85E3BC
:100C500090E0089520918B0226FFD0CF8AE290E0A9
:100C6000089520918B0226FFC9CF81E390E008957B
:100C700089E390E0089583EE90E0089582EE90E09D
:100C8000089586EE90E0089590918B0292FF06C041
:100C9000282F28712830F9F4877F846093FF06C0DD
:100CA000282F28712831F1F4877E846120918C02ED
:100CB00020FF06C0382F38713830D9F4877F816023
:100CC00021FF06C0282F28712831D1F4877E816149
:100CD00094FD877E0895282F24712430F9F68B7FA8
:100CE0008860DCCF282F2471243101F78B7E886146
:100CF000DDCF382F3171313019F78E7F8860E0CF2A
:100D0000282F2171213121F78E7E8861E1CF08954E
:100D100008950C948806E82FF0E0E758FD4F808195
:100D20000895089580EA8A95F1F7089500C008951E
:100D30000C949206F894E82FE295EF70F0E031A160
:100D4000282F2F7081E090E001C0880F2A95EAF7E4
:100D5000982F9095932391A392A1892B82A37894A5
:100D60000895CF93DF93C9E5D1E089910E949A0657
:100D700081E0C136D807C9F7C2E5D1E089910E9468
:100D80009A0681E0C935D807C9F7E1E7F2E0A9E79B
:100D9000B2E011921D9282E0E937F807D1F788E0BE
:100DA0000E945107DF91CF910C949B03BF92CF9289
:100DB000DF92EF92FF920F931F93CF93DF9309E59A
:100DC00011E0C1E7D2E0C12CD12CEE24E394F12C48
:100DD000F80181918F01F894E82FE295EF70F0E02F
:100DE00021A18F70A70102C0440F551F8A95E2F719
:100DF000CA01922F982B91A392A18095892382A357
:100E000078940E949606E2E5F1E030E020E0B12C13
:100E10004191A42FA295AF70B0E090968C9190E094
:100E20004F7002C0959587954A95E2F780FD35C0D1
:100E30008E2D022E01C0880F0A94EAF7B82A2F5F80
:100E40003F4F2730310521F7F801319780810E940B
:100E50009A0657E0C5120E9498068881B816F9F0E4
:100E6000B88281E0D82AC394219688E0C812B0CF16
:100E70002D2D48E069E772E081E792E00E94520779
:100E80000E94A5038D2DDF91CF911F910F91FF90AF
:100E9000EF90DF90CF90BF90089580E0CFCF80E0BB
:100EA000E1CF0895FF920F931F93CF93DF93F82E16
:100EB000092F162FD72FC42F222349F081E08093CA
:100EC000A6010E94491A9093A5018093A4018091E4
:100ED000A6018823A1F08091A4019091A5010E9410
:100EE000611A069760F0EF2DF02FA12FBD2FCE0FC6
:100EF000DF2FD11DEC17FD0741F41092A601DF9101
:100F0000CF911F910F91FF90089581918D93F2CF12
:100F1000EF92FF920F931F93CF93DF93CDB7DEB77E
:100F2000AC970FB6F894DEBF0FBECDBF962FBA01B7
:100F30002132310598F540EF49831A821B821C82C9
:100F4000790142E0E40EF11C0CE210E00E191F09D9
:100F5000E1E0F0E0EC0FFD1F0E0F1F1FF801808392
:100F60009183A901C80102960E94B527A701B80183
:100F7000CE0105960E94FE1DE5E0F0E0EC0FFD1F9E
:100F8000E80FF91F27EF2083BC016B5F7F4FAE0195
:100F90004F5F5F4F8DE892E00E94131BAC960FB637
:100FA000F894DEBF0FBECDBFDF91CF911F910F919F
:100FB000FF90EF9008950E94AE27FA01608371833D
:100FC00082839383089581E008950C94E3070C9441
:100FD000E507EF92FF920F931F93CF93DF9300D01B
:100FE00000D0CDB7DEB7F82EE92E8B010E94E707BF
:100FF0008823A9F0D8018C918233E0F4803378F40F
:10100000813169F040F4803111F12F2D3E2DA8017E
:1010100060E080E83FC08032A1F08132B1F70F90EC
:101020000F900F900F90DF91CF911F910F91FF9034
:10103000EF900895803448F3823488F3803829F79C
:10104000EECFF8018181823069F08430B9F0D801A7
:101050001196EC91E150ED3010F7F0E0EE5FF74DB6
:101060000C94A82712968C910E94D718F8016281DF
:1010700070E090E080E00E942916E9CF12968C91F2
:1010800090E00E94EA18E3CF30E020E050E040E03A
:1010900061E081E10E948807C2CF82E090E00E9477
:1010A000BE27898321E030E0AE014F5F5F4F68E0EB
:1010B000F0CF83E090E00E94BE27898321E030E0FA
:1010C000AE014F5F5F4F62E0E4CF60912B02709101
:1010D0002C0280912D0290912E02AE014F5F5F4F46
:1010E0000E94DB0724E030E0AE014F5F5F4F63E01A
:1010F000D0CF30E020E050E040E069E0CACF30E0FF
:1011000020E050E040E065E0C4CF30E020E050E077
:1011100040E066E0BECF0E94DC18898321E030E029
:10112000AE014F5F5F4F64E0B4CF88E0898387E012
:101130008A8322E030E0AE014F5F5F4F6DE0A9CFC0
:101140008DE892E00C94401D8091AD0180FF12C0AB
:101150006091050185E0689FB00111247595679540
:101160007595679560387105A8F561157105A1F150
:10117000862F089581FF09C06091050185E0689F71
:10118000B001112475956795EDCF6091050182FD41
:101190000AC08091AC018823D1F090910401609144
:1011A0000501891728F085E0689FB0011124DACF86
:1011B000869FB001112485E0869F9001879F300DA6
:1011C0001124692F70E0C9010E949427CBCF65E0FC
:1011D00070E0CECF8FE7089581E008958091AD0152
:1011E00080FF0CC06091010170E075956795759561
:1011F00067956115710549F1862F089581FF06C035
:101200006091010170E075956795F3CF60910101E0
:1012100082FD0BC09091AB019923A1F06091000178
:1012200080910101961738F0682F70E060387105E1
:1012300000F38FE70895899FC001112470E00E9498
:101240009427F4CF61E070E0D7CF81E008958D3E20
:1012500031F40E94A40881958093B10108958E3ED7
:1012600019F40E94A408F8CF8F3E31F40E94A4081C
:1012700081958093B0010895803F19F40E94A408DD
:10128000F8CF893F29F40E94EE088093B2010895B7
:101290008A3F21F40E94EE088195F7CF8B3F31F40D
:1012A0000E94EE0881958093B30108958C3F19F454
:1012B0000E94EE08F8CF9FE0980F983070F4815F9D
:1012C000990B21E030E001C0220F8A95EAF7809166
:1012D000AF01822B8093AF0108958D3F31F480914F
:1012E000AD0181608093AD0108958E3F21F480911E
:1012F000AD018260F7CF8F3FB9F78091AD01846077
:10130000F1CF4091B0018D3E59F48091B10187FF3A
:101310000DC01092B10141110BC01092AC0108C078
:101320008E3E81F48091B10118169CF3442381F024
:101330008091B2019091B301892B09F05AC01092AB
:10134000AB0108958F3E49F447FFF0CF1092B001F2
:101350008091B1018111ECCFE0CF803F19F41416D8
:10136000ACF3E4CF9091B201893F29F41916F4F659
:101370001092B201DBCF8A3F19F497FFD7CFF8CF95
:101380009091B3018B3F29F497FFD0CF1092B30116
:10139000CDCF8C3F19F41916CCF3C8CF9FE0980F2E
:1013A000983090F4815F990B21E030E0B90102C0E0
:1013B000660F771F8A95E2F7CB0180959091AF0178
:1013C00089238093AF01B2CF8D3F31F48091AD017D
:1013D0008E7F8093AD01AACF8E3F21F48091AD0125
:1013E0008D7FF7CF8F3F09F0A1CF8091AD018B7F2B
:1013F000F0CF08950E94491A9C019091B00180910C
:10140000B101982B21F03093AA012093A90190916A
:10141000B2018091B301982B21F03093A801209361
:10142000A7018EEA91E00C94210EEF92FF920F93A8
:101430001F93CF93DF9300D000D000D0CDB7DEB79D
:1014400086E0EEEAF1E0DE01119601900D928A95B8
:10145000E1F7E090B001F090B1010091B20110917C
:10146000B3011092B0011092B1011092B20110922A
:10147000B3018E2D8F2991F08091A9019091AA013D
:101480000E94611AAC019091AC01992309F43FC00C
:10149000809106018417150608F447C0802F812B20
:1014A00091F08091A7019091A8010E94611AAC016E
:1014B0009091AB01992309F477C0809102018417C0
:1014C000150608F47FC08091B0019091B101892B7D
:1014D0009091B201892B9091B301892B11F00E9458
:1014E000FA0986E0FE013196AEEAB1E001900D9274
:1014F0008A95E1F726960FB6F894DEBF0FBECDBFF2
:10150000DF91CF911F910F91FF90EF90089520915F
:1015100007018AE0289F900111242417350708F05D
:10152000BDCF9F5F9093AC0102C09F3FD1F7EE20EB
:1015300059F00E94A4089FEF1E140CF491E0899FBB
:10154000802D11248093B001FF2059F00E94A4083F
:101550009FEF1F140CF491E0899F802D112480933C
:10156000B1013091B001332309F498CF2091B1013A
:10157000222309F493CF45EB3403C00111249923AE
:1015800059F09093B00145EB2403900111243323CB
:1015900039F03093B10182CF81E08093B001F3CF75
:1015A00081E08093B1017ACF209103018AE0289FE6
:1015B000900111242417350708F085CF9F5F909381
:1015C000AB0102C09F3FD1F7002359F00E94EE0803
:1015D0009FEF10160CF491E0899F802D11248093C9
:1015E000B201112359F00E94EE089FEF11160CF47E
:1015F00091E0899F802D11248093B3013091B20135
:10160000332309F460CF2091B301222309F45BCF87
:1016100045EB3403C0011124992359F09093B20192
:1016200045EB240390011124332339F03093B301A7
:101630004ACF81E08093B201F3CF81E08093B30180
:1016400042CF86E0EEEAF1E0DF011D928A95E9F7EC
:101650001092AC011092AB011092AD010895CF939E
:10166000DF93EC0197FF0CC0FB018281882341F0DE
:101670000E945A0BCE019F770E94B40B0E94950BDB
:1016800081E0DF91CF9108958CE090E00E94BE2729
:1016900090E0B0E0A0E08093810290938202A0935A
:1016A0008302B09384020895609181028CE090E0FF
:1016B0000C94CC270E94090E869581708093860237
:1016C00090918102913029F4882319F089E30E94D6
:1016D00002100E941018809385020E9423188091A6
:1016E0008102813089F0882359F0823091F0843072
:1016F000B9F08FE39CE90197F1F700C0000008956D
:1017000082EE0E946E0FF5CF88E193E00E944103C4
:10171000F0CF82EE0E946E0F87E50E940210E9CFA3
:1017200086EE0E94021088E1F8CF8091810281301C
:1017300071F0882341F0823031F0843099F080914B
:1017400085020C94201882EE0E94BC0FF8CF8CE228
:101750000E94021080918602882389F389E30E9407
:101760000210EDCF88E2FBCF0F931F93CF93DF934F
:101770008C01CCE0D0E0C8010C2E02C09695879574
:101780000A94E2F78F700E945F042497CC3F8FEF9A
:10179000D80789F7DF91CF911F910F9108950F938B
:1017A0001F93CF93DF93EC018B01FB018281882390
:1017B00061F00E941018CE01825E9C458530910533
:1017C00020F4809381020E94540BB801CE01DF9176
:1017D000CF911F910F910C942F0B0F931F93CF93C9
:1017E000DF93C42FD22FFC0182818823C9F040935C
:1017F000B6010E94491A9093B5018093B40180E22A
:101800008C0F883008F050C0C77081E001C0880F8D
:10181000CA95EAF7DF91CF911F910F910C940A10AE
:101820001091B601141335C08091B4019091B501A7
:101830000E94611A883C910560F5C0E2CD0F1D172A
:10184000B9F080E2810F883040F4177081E001C068
:10185000880F1A95EAF70E941110C83048F481E009
:101860009D2F977001C0880F9A95EAF70E940A1081
:10187000802F0E940210C830B8F4D77081E001C0F8
:10188000880FDA95EAF7DF91CF911F910F910C94B1
:10189000111080E28C0F883038F4C77081E001C0ED
:1018A000880FCA95EAF7EFCFDF91CF911F910F9183
:1018B00008950F939C01CB01243F4CE5340759F167
:1018C000A8F4293DFCE53F0701F12A3D4CE534072A
:1018D000D1F1283D3C4591F406E221EE41EE68ED60
:1018E0007CE50E94ED0B80E00F910895263FFCE51A
:1018F0003F07E9F0B0F0273F3C45F9F0FC01828159
:10190000882339F11092B601EFCF07E225EE45EEBC
:1019100069ED7CE5E6CF06E221EE40EE64EF7CE582
:10192000E0CF07E225EE44EE65EF7CE5DACF06E294
:1019300021EE42EE66EF7CE5D4CF07E225EE46EEDF
:1019400067EF7CE5CECF08E221E045EE6AED7CE56D
:10195000C8CF81E0C9CFCF93DF93EC01FB01828137
:10196000882309F419C1C230FCE5DF07C0F1C63194
:101970009CE5D90730F09E012B5F3C4529303105AD
:1019800070F50E94DC1890938C0280938B02C0311A
:10199000ECE5DE0709F4CFC008F05BC0C8308CE589
:1019A000D80709F4B6C088F5C430ECE5DE0709F4C1
:1019B000A8C0C0F4C2308CE5D80709F49CC080915F
:1019C0008B028260C330DC4509F498C080918B02A1
:1019D00090918C020E94EA180E94911280E0DF919F
:1019E000CF91089580918B028061C630ECE5DE07CF
:1019F00009F484C080918B028860C730DC4508F40C
:101A00007DC080918B02806279C0CC308CE5D80794
:101A100009F489C070F480918B028C60CA30ECE5C7
:101A2000DE0709F46BC008F478C080918B028E7FCA
:101A300065C0CE308CE5D80709F479C080918B025F
:101A40008B7FCF30DC4508F459C080918B028F7EAC
:101A500055C0CC3FECE5DE0709F457C030F5C33183
:101A60008CE5D80709F46FC078F4C131ECE5DE07E6
:101A700009F465C0C231DC4509F0A8CF0E9491127B
:101A800080918B028F773AC0C5318CE5D80709F475
:101A900062C008F476C080918C028160CB3FDC4547
:101AA00009F094CF80938C0291CFC115FDE5DF073B
:101AB00009F44DC088F480918C028D7FCE3F9CE567
:101AC000D90781F380918C028E7FCF3FDC4550F3A4
:101AD00080918C028360E6CFC230FDE5DF0709F418
:101AE00059C008F444C080E0C330DD4509F06ECF32
:101AF0000E946F196BCF80918B02816080938B0263
:101B000065CF80918B028460F9CF80918C028260D6
:101B1000C9CF80918B028064F1CF0E949112809195
:101B20008B028068EBCF80918B028D7FE7CF809115
:101B30008B02877FE3CF80918B028F7DDFCF8091F7
:101B40008B028F7BDBCF80918B02837FD7CF8091FD
:101B50008C028C7FA7CF80918B0282FB992790F912
:101B600021E0922790FB82F990FB83F9C7CF809107
:101B70008C02982F909591708E7F892B90FB81F924
:101B800091CF0E94911290918B02892F97FB87F938
:101B90008058B4CF81E0ACCF81E021CFCF93DF93E9
:101BA000EB0186319C4511F50E9410189A8199230A
:101BB00099F08A7A91E009F490E09093B70181114D
:101BC00009C089E20E94EB170E945F1880E0DF9154
:101BD000CF91089585E3F6CF8091B701811104C0BC
:101BE00089E20E94F217F0CF85E3FBCF81E0EFCFCF
:101BF0009093BD018093BC010895E091BC01F091E8
:101C0000BD01309721F00190F081E02D099480E032
:101C10000895E091BC01F091BD01309711F480E08E
:101C200008950190F081E02D09950895E091BC019F
:101C3000F091BD01309721F00280F381E02D0994ED
:101C40000895E091BC01F091BD01309739F022E098
:101C5000DC012C930480F581E02D099408952091F6
:101C6000BA013091BB012817390771F09093BB017D
:101C70008093BA01E091BC01F091BD01309721F051
:101C80000680F781E02D099408952091B8013091E4
:101C9000B9012817390771F09093B9018093B80101
:101CA000E091BC01F091BD01309721F00084F185F5
:101CB000E02D099408950E94551A6093CB0170930A
:101CC000CC018093CD019093CE016093C7017093B6
:101CD000C8018093C9019093CA01089585B78068AF
:101CE00085BF85B7806885BF0895089508950C94D1
:101CF000750E08950C94790E0E946E0E82EC98E198
:101D00000E94B81A0E94760E0C94770E81E0089516
:101D10000C94860E089508950E94401A0E94B10600
:101D20000E94BD1A0C947A0EAF92BF92CF92DF92AE
:101D3000EF92FF920F931F93CF93DF93CDB7DEB750
:101D40002A970FB6F894DEBF0FBECDBF0E948A0E51
:101D50000E948B0E0E94D60681110E945B0E8FEBB3
:101D6000A82E81E0B82E10E000E0C02E802F0E9447
:101D70008B06E82EF501F1905F01F81609F44FC0CB
:101D80008091400281FD0E9491068F2D8E25D12CDD
:101D9000FF24F394982F9F21E9F10E94880E882355
:101DA00099F0DE82CF82EF2081E009F480E088871D
:101DB0000E94491A8160782F9A8789874E815F81B6
:101DC00068858A850E94370FF801E154FE4F8081B3
:101DD000F826F0820E94150A0E94A0080E94FD0DBC
:101DE0009091BE01891791F10E94FD0D8093BE0173
:101DF0002A960FB6F894DEBF0FBECDBFDF91CF910C
:101E00001F910F91FF90EF90DF90CF90BF90AF9018
:101E10000C947004D394FF0CF7E0DF12BBCF0F5F7C
:101E20001F4F0830110509F0A0CF8FEF89838A83F7
:101E30001B820E94491A8160782F9D838C8349817F
:101E40005A816B818D810E94370FC4CF2A960FB6BD
:101E5000F894DEBF0FBECDBFDF91CF911F910F91E0
:101E6000FF90EF90DF90CF90BF90AF900895DF92FA
:101E7000EF92FF920F931F93CF93DF93CDB7DEB70F
:101E80002B970FB6F894DEBF0FBECDBF7A878B8736
:101E9000F42E052F162FE72ED82E61110E9433182D
:101EA0001E821D827E2DEC82DD824F2D502F612FF0
:101EB0008D2D9E812B960FB6F894DEBF0FBECDBF41
:101EC000DF91CF911F910F91FF90EF90DF900C94D5
:101ED0000715FC01808191810C94BD17CF93C82F09
:101EE000882309F447C08CEF8C0F813AA0F46C2F43
:101EF00080910801909109010E948619882329F098
:101F00008C2F0E94F2170E945F188C2F0E94EB17F3
:101F1000CF910C945F1880E28C0F883048F4C77022
:101F200081E001C0880FCA95EAF70E941318F0CF2C
:101F3000EBE5EC0FE33040F4F0E0E157FE4F808139
:101F400090E0CF910C942F0EE8E5EC0FE73150F4C0
:101F5000F0E0EE0FFF1FEF59FE4F80819181CF918E
:101F60000C94450ECD3E30F08C2F0E942709CF9166
:101F70000C94FA09CF910895882361F19CEF980F92
:101F8000913A20F40E94F2170C945F1890E2980F97
:101F9000983050F4877091E001C0990F8A95EAF764
:101FA000892F0E941918F0CF9BE5980F933020F4E9
:101FB00090E080E00C942F0E98E5980F973120F474
:101FC00090E080E00C94450E8D3E20F00E94810947
:101FD0000C94FA0908951F93CF93DF93182FEB0108
:101FE0000E946E0F209731F4812FDF91CF911F91C6
:101FF0000C94BC0F8FE99FE00197F1F700C000003F
:102000002197F0CF70E060E0893311F460E570E073
:102010000C94EB0F882321F00E9413180C945F1886
:102020000895882321F00E9419180C945F180895D0
:10203000BF92CF92DF92EF92FF920F931F93CF93B5
:10204000DF936C01D62FC72FFC0112810581029509
:102050000F700E940918E82E8823A1F0E12E1123A9
:1020600089F08C2F807F803429F080E28D0FE12C65
:10207000883040F082E00E94AA180E94091891E07E
:10208000E82EE926BC2EB2949FE0B922EB2DF0E0B9
:10209000E15FF74D0C94A8270C2F0F70C07F11F053
:1020A0000295007F1123A9F0002359F080E28D0FE3
:1020B000883010F0D11109C0802F0E9413180E949F
:1020C0005F188D2F0E946E0F14C0802F0E9426185B
:1020D000F6CF8D2F0E94BC0F002359F080E28D0FA8
:1020E000883010F0D1112CC0802F0E9419180E9446
:1020F0005F182B2D2850330B2430310520F40E941B
:10210000FD0D0E947004EE2009F49EC10E94051886
:1021100080FD9AC1F60112820E94FF170E948B1661
:10212000C6010E9445120E94FF17DF91CF911F91B7
:102130000F91FF90EF90DF90CF90BF900C94AC1672
:10214000802F0E942C18D3CFFC2FFF70FF2EC07F52
:10215000C03219F0F29480EFF822DD2369F0D1301B
:1021600049F1112391F1002351F1F601858180FF9E
:10217000A8CF8F70858323C0112381F0011106C081
:102180000E9446188F290E940A10B3CF0130C1F770
:102190000E9446188F290E944C18ABCF011106C02F
:1021A0000E9455188F2D0E941110A3CF013009F401
:1021B000A0CFF6CF112329F0063008F09ACF8F2D4B
:1021C000E2CF053008F095CFEDCF002359F3D93396
:1021D00049F4FFEF27EE33E0F15020403040E1F7C3
:1021E00000C000008D2F0E94BC0F83CF8C2F8695DE
:1021F0008695837069F0813009F07BCF8D2F9C2FFD
:102200009370111102C090E080E00E94450E71CFE2
:102210008D2F9C2F9370111102C090E080E00E94DE
:102220002F0E67CF8D2F112329F00E9427090E94BE
:10223000FA095FCF0E948109FACF8C2F837009F0D1
:1022400041C0111156CF4D2F429546954770440F0E
:10225000440F0D2F0F7010E030E020E0042E04C07A
:10226000000F111F221F331F0A94D2F760E070E0A5
:10227000CB01D4FF0FC06FE070E080E090E004C0BD
:10228000660F771F881F991F4A95D2F76095709542
:1022900080959095C695C695C370602B712B822B47
:1022A000932BC23049F058F4C13019F00E943D160A
:1022B00020CF0E942B161DCF0E944F161ACF0E94CE
:1022C000291617CF8695112311F08C2F8170882342
:1022D00009F40FCF4D2F429546954770440F440F98
:1022E0000D2F0F7010E030E020E0042E04C0000F2E
:1022F000111F221F331F0A94D2F760E070E0CB0158
:10230000D4FF0FC06FE070E080E090E004C0660F83
:10231000771F881F991F4A95D2F760957095809511
:102320009095C695C695C370602B712B822B932B0D
:10233000C23049F058F4C13019F00E940217D9CECA
:102340000E94F016D6CE0E941417D3CE0E946516B6
:10235000D0CECF70112329F08C2F0E948B168D2F99
:1023600012CF8D2F0E9411108C2F0E94AC16C1CE5F
:10237000D23F89F160F4D03FC9F0D13F29F1112358
:1023800009F442C001119DCE8C2F8F7121C0D33F23
:1023900039F1D43FA1F7112369F1CF718C2F0E943D
:1023A0008B1663E08C2F0E949518A3CE112341F069
:1023B000053008F09ECE8C2F8F710E94CF1699CEDB
:1023C000063008F096CEF7CF8C2F8F71112369F26B
:1023D0000E948B168ECE8C2F8F711123C9F3C5CF1F
:1023E000112329F08C2F8F710E94761682CE0E94C5
:1023F00071167FCE81E00E94AA18023008F479CECF
:1024000082E00E94AA1875CE002359F0D93309F052
:10241000E9CE8FEF97EEE3E081509040E040E1F7A6
:10242000DFCE8C2F8F71A1CF4C2F4F706D2FC60137
:102430000E9478040E94A1155CCE4C2F4F706D2F26
:10244000C6010E947B0455CEDF91CF911F910F9161
:10245000FF90EF90DF90CF90BF9008950F931F9360
:10246000CF93DF93EC01688179818A810E94C7173D
:102470008C010E9426170E942816B801CE01DF9118
:10248000CF911F910F910C941810CF93DF93EC0113
:102490008B819C81892B29F08881998189238F3FA9
:1024A00059F4DF91CF910895CE010E942E12CE01F2
:1024B000DF91CF910C949003CE010E94B70381115C
:1024C000F3CF0E940918882361F38A81882349F396
:1024D00082E0DF91CF910C94AA18882321F00E940A
:1024E00026180C945F180895882321F00E942C1858
:1024F0000C945F18089590E080E00E942F0E90E009
:1025000080E00E94450E0E9433180E9443180E94EA
:102510005F180E94210B0C94FA090E94F9170C9481
:102520007B120E9423180C948D12E92FE295EF7014
:10253000E250EE3070F4F0E0E15EF74D0C94A82725
:10254000803F19F020F4883E20F481E00895843F14
:10255000E1F380E00895883EC0F3813FD1F7F5CFE5
:1025600093FB882780F908950E94BD170C9495125B
:10257000CF93DF9300D000D00F92CDB7DEB70F908E
:102580000F900F900F900F90DF91CF910895CF9300
:10259000DF9300D000D000D0CDB7DEB726960FB6BF
:1025A000F894DEBF0FBECDBFDF91CF9108951F938A
:1025B000CF93DF93C091D00116E08091D1018C13AD
:1025C00004C0DF91CF911F910895D0E01C9FF001CE
:1025D0001D9FF00D1124EE52FE4F4081518162810A
:1025E0007381848195810E94C7122196C770E5CFBF
:1025F0004091020250910302609104027091050221
:1026000080910602909107020C94C7121F93CF93FA
:10261000DF9380910702807FA9F4809104028823D0
:1026200089F08091D001C091D10160910202709136
:102630000302A0910502B0910602D62FD72316E01F
:10264000C81304C0DF91CF911F91089590E01097B7
:1026500011F0DF3F19F401968770F2CF189F9001B7
:10266000199F300D1124F901EE52FE4F418147139D
:10267000F2CF40814613EFCF42814111ECCF43812D
:1026800054814A1B5B0B483C510528F78091070297
:102690008F70806180930702F901E952FE4F8081BB
:1026A0008F708061808382E092E00E944512DF910A
:1026B000CF911F910C94D712AF92BF92CF92DF921D
:1026C000EF92FF920F931F93CF93DF93CDB7DEB7B7
:1026D00061970FB6F894DEBF0FBECDBF8C0185E0C9
:1026E000F801DE011D9601900D928A95E1F7F8013F
:1026F00040815181E28082E0C82E82E0D82E609134
:102700000502709106026115710509F461C190918D
:10271000020220910302892F82238F3F09F458C1BE
:10272000A380B480F0900402F501E61BF70BFF20B4
:1027300009F4FCC080910702382F307FE83CF10596
:1027400008F0B2C0311179C0FE2C251323C09413B8
:1027500021C0E1101FC08F708061809307020E942A
:10276000F812C6010E94451280910702F801858384
:102770008F2D61960FB6F894DEBF0FBECDBFDF91EF
:10278000CF911F910F91FF90EF90DF90CF90BF906E
:10279000AF900895AB2829F0842F85238F3F09F04F
:1027A00033C180E0F82FF170DF2E80FF3CC08091B4
:1027B000D0012091D10136E0821315C04D875E878C
:1027C0008D859E850E94BD17292F22952F7022305E
:1027D000F0F0243018F59F70F1F0F8019581907FAA
:1027E000D1F4D12C1EC090E0389FF001399FF00D3C
:1027F0001124EE52FE4F6181651306C0608164139F
:1028000003C062816E110FC001968770D5CF9F7093
:1028100011F0882331F3805E883018F3C8010E94DC
:102820004512FD2CA5CFEE2009F4A2CF809107021E
:10283000816080930702F12C9BCF251306C094136F
:1028400004C0F801EE2009F48DC04D875E878D85A8
:102850009E850E94B412882319F1EE2009F180911F
:102860000702803270F02091020230910302388713
:102870002F831986BB86AA868C87CE0107960E9475
:10288000451286E0F801A2E0B2E001900D928A952F
:10289000E1F70E9406130E94F812FF24F39468CF18
:1028A000C8010E944512F9CF311113C07A2DB98A9F
:1028B000A88A6E2D89890E94B81282E092E00E9457
:1028C000451286E0F60111928A95E9F70E94F81206
:1028D000B2CF25130FC094130DC0E1100BC0F80147
:1028E0008583C8010E94451286E0F60111928A95FF
:1028F000E9F73ECF4D875E878D859E850E94B41295
:10290000882371F2EE2061F280910702803208F490
:10291000B8CF20910202309103023A8329831B82AF
:10292000BD82AC828E83CE010196A9CFE83CF10531
:1029300008F041C0FE2CEE2009F4B2CF25132AC0C6
:10294000941328C08091070280FD1BC0982F907FB0
:10295000C1F0F8018583903F31F0982F907F905F10
:102960008F70892B8583C8010E94451286E0F8018B
:10297000A2E0B2E001900D928A95E1F70E94F81270
:10298000F7CE86E0F801A2E0B2E001900D928A95C0
:10299000E1F7EECE4D875E878D859E850E94B4124D
:1029A00081116FCF80910702816080930702C80177
:1029B0000E944512DDCE7A2DB98AA88A6E2D8989AA
:1029C0000E94B81286E0F60111928A95E9F7D6CFF7
:1029D000EE2009F465CF4D875E878D859E850E9428
:1029E000B412F82E882309F45BCF86E0F801A2E048
:1029F000B2E001900D928A95E1F782E092E00E94A8
:102A0000690F0E940613BACF81E08E25CBCE1F93AB
:102A1000CF93DF93CDB7DEB72C970FB6F894DEBF18
:102A20000FBECDBF4F83588769877A878B879C8776
:102A3000CE0107960E945C13882369F08A859B85E6
:102A4000892B39F04F815885842F85238F3F09F0DA
:102A500071C016E05FC086E0FE013796DE01119678
:102A600001900D928A95E1F78A859B85892B89F3E0
:102A70008F81988589238F3F61F32091D10130E0C8
:102A8000C9010196877099274091D001481719060E
:102A900071F40E9491121092D1011092D00186E03F
:102AA000E2E0F2E0DF011D928A95E9F7D2CF96E0ED
:102AB000929FD001939FB00D1124AE52BE4FFE01E4
:102AC000319601900D929A95E1F78093D1010E9481
:102AD000D712BFCF819FC00111248E529E4F0E94FA
:102AE0005C138823E9F0E091D0011E9FF0011124CE
:102AF000EE52FE4F408151816281738184819581C4
:102B00000E94C7128091D00190E0019687709927AA
:102B10008093D0018091D0019091D1018913DACFB7
:102B20002C960FB6F894DEBF0FBECDBFDF91CF91CC
:102B30001F91089569857A858B859C850E94C712AF
:102B400088CFEF92FF920F931F93CF93DF938C0167
:102B5000892B81F0F12CEE24E394E8012196F80111
:102B60008491843770F4843008F05FC08130B1F014
:102B70008230A1F1DF91CF911F910F91FF90EF90E3
:102B80000895853709F44CC008F43DC09CE7980FC0
:102B9000903780F78F770E94BC0F49C00E5F1F4FA0
:102BA000FE01849190E2980F983060F48770FE2DBA
:102BB00001C0FF0F8A95EAF78F2F0E9436180E94F6
:102BC0005F1802C00E946E0F8F2D815030F2EFE926
:102BD000FFE03197F1F700C00000F7CF0E5F1F4F05
:102BE000FE01849190E2980F983050F48770FE2D8A
:102BF00001C0FF0F8A95EAF78F2F0E943C18DFCFA4
:102C00000E94BC0FE1CF0E5F1F4FFE01C491C15067
:102C1000D8F28FE99FE00197F1F700C00000F7CFED
:102C20000E5F1F4FFE01F490CFCF0E946E0F8E01FA
:102C3000CBCF08950C9419160E941A1660932F0298
:102C40007093300280933102909332020C947B1285
:102C500008950C941C160F931F9300912F0210914E
:102C600030022091310230913202602B712B822B85
:102C7000932B1F910F910C941C160F931F9300918F
:102C80002F021091300220913102309132026023E4
:102C90007123822393231F910F910C941C160F9381
:102CA0001F9300912F021091300220913102309138
:102CB000320260277127822793271F910F910C946E
:102CC0001C160C9419160C9461160E9463166093DE
:102CD0002B0270932C0280932D0290932E020C9461
:102CE0007B1260E070E0CB010C9465160F931F938C
:102CF00041E050E060E070E08A019B0104C0000FF9
:102D0000111F221F331F8A95D2F7C901B8011F91E5
:102D10000F910C9465160F931F9341E050E060E013
:102D200070E004C0440F551F661F771F8A95D2F7C5
:102D300080912B0290912C02A0912D02B0912E0235
:102D40008A019B01082B192B2A2B3B2BC901B801A7
:102D50001F910F910C9465160F931F9341E050E063
:102D600060E070E004C0440F551F661F771F8A950E
:102D7000D2F7CB01BA01609570958095909500913E
:102D80002B0210912C0220912D0230912E026023F3
:102D90007123822393231F910F910C9465160F9337
:102DA0001F9341E050E060E070E004C0440F551F05
:102DB000661F771F8A95D2F780912B0290912C0283
:102DC000A0912D02B0912E028A019B01082719279C
:102DD0002A273B27C901B8011F910F910C94651652
:102DE0000F931F9300912B0210912C0220912D0222
:102DF00030912E02602B712B822B932B1F910F9100
:102E00000C9465160F931F9300912B0210912C02C6
:102E100020912D0230912E0260237123822393236F
:102E20001F910F910C9465160F931F9300912B0225
:102E300010912C0220912D0230912E0260277127D3
:102E4000822793271F910F910C946516089527E010
:102E5000929F800D1124982F977041E001C0440F7C
:102E60009A95EAF786958695869595E0899FF00173
:102E70001124E85FFD4F90E080E070E05191DF01A8
:102E800011979B01082E02C0369527950A94E2F708
:102E9000217021952527242325272C930196853001
:102EA000910561F7089527E0929F800D1124982FD6
:102EB000977086958695869525E0829FF00111246E
:102EC000E85FFD4F50E040E080E0219130E0092EC6
:102ED00002C0369527950A94E2F721703327042E15
:102EE00001C0220F0A94EAF7822B4F5F5F4F4530F3
:102EF000510559F70895BF92CF92DF92EF92FF925A
:102F00000F931F93CF93DF938C01C0902B02D0902F
:102F10002C02E0902D02F0902E0280912F029091D1
:102F20003002A0913102B0913202C82AD92AEA2A8D
:102F3000FB2ACFE1D0E0BC2ED701C6010C2E04C085
:102F4000B695A795979587950A94D2F780FD0EC000
:102F5000219788F7B12C8B2DDF91CF911F910F9185
:102F6000FF90EF90DF90CF90BF900895B8018C2F25
:102F70000E949804019761F3EECFCF93DF93EC01A9
:102F80000E947B17BE01DF91CF910C9498041F9390
:102F9000CF93DF93EB019091CF01992331F0CB01D7
:102FA000DF91CF911F910C94BD17882379F0CB014D
:102FB0000E947B17182F682FCE010E942717BE0191
:102FC000812FDF91CF911F910C949804CB010E9427
:102FD0005317182FF4CF682F8091080190910901A1
:102FE0000C94BC19682F80910801909109010C94F0
:102FF000BE1980910801909109010C94C01980912B
:103000003302859585958595089580913302877063
:10301000089590913302977081E009F480E008955B
:1030200080913F02089590913F02892B80933F0247
:103030000895809590913F02982390933F020895C0
:1030400080933F02089510923F02089590913E02AE
:10305000892B80933E020895809590913E0298239B
:1030600090933E02089510923E02089590913D0281
:10307000892B80933D020895809590913D0298237D
:1030800090933D02089510923D020895809134027C
:10309000089508950C94491890913402981721F0DE
:1030A000809334020C944A18089580913402882346
:1030B00029F01092340280E00C944A180895E091AF
:1030C0000801F091090180913F028083E09108019D
:1030D000F0910901808190913E02892B8083E091DB
:1030E0000801F0910901808190913D02892B808334
:1030F00090913402992381F0E0910801F091090147
:103100008081892B808380910801909109010E9420
:10311000741981110E94551880910801909109013C
:103120000C94160E08950C94921898E0899F9001C3
:103130001124622B609333020E948B16809133021C
:103140008595859585950C9493181092330280E0AF
:103150000C949318909133028095892380933302C5
:10316000282F277071F4282F082E000C330B92178C
:10317000130639F08595859585950E94AC160C94BB
:10318000A518089580E0089590E080E00E94C62789
:1031900021E08B3E9E4F09F020E0822F089582E0CF
:1031A00090E00C94BE2783E090E00C94BE27682F3B
:1031B00083E090E00C94CC27CF9384E090E00E94D1
:1031C000BE27C82F81E290E00E94BE27982F8C2F47
:1031D000CF910895CF93C92F682F84E090E00E948B
:1031E000CC276C2F81E290E0CF910C94CC27AB01DF
:1031F000BC018FE090E00C94DE27AB01BC0183E1C1
:1032000090E00C94DE2760E070E0CB010C94FD1898
:1032100060E070E0CB010E94F7180C9403196BEE8C
:103220007EEF90E080E00E94EA2760E082E090E09C
:103230000E94CC2760E083E090E00E94CC271092AF
:103240002F0210923002109231021092320260E08E
:1032500084E090E00E94CC2760E081E290E00E9450
:10326000CC2760E085E090E00E94CC2760E086E01B
:1032700090E00E94CC276FEF87E090E00E94CC277F
:1032800040E050E0BA0188E090E00E94DE2760E074
:103290008DE090E00E94CC2740E050E0BA0188E148
:1032A00090E00E94DE2760E087E190E00E94CC275A
:1032B00040E050E0BA018CE190E00E94DE2760E03F
:1032C00080E290E00E94CC2740E050E0BA0188E123
:1032D00090E00E94DE270C9408190C940F19682FB7
:1032E0008EE090E00C94CC279C012E5F3F4FAC0108
:1032F000485F5F4F80E02417350709F40895F9010E
:1033000091919F019923B9F38F5FF5CF662349F01F
:10331000FC01329608962191261729F0E817F90743
:10332000D1F780E0089581E008959C01FC01329678
:103330009FEF80E04191461751F09F3F19F44111F2
:1033400001C0982F8F5F8630A9F79F3F09F4089539
:10335000290F311D97FD3A95F90162830895FC010B
:10336000329608962191261303C0DF0111971C9213
:10337000E817F907B9F708950C9495190C94AF194B
:10338000029626E0FC0111922A95E9F70895089526
:1033900008950C94C81980917E03843049F10E94ED
:1033A000C91980E00E9470041092410288E190E007
:1033B00020E40FB6F894A895809360000FBE209388
:1033C000600083B7817F846083BF83B7816083BFE0
:1033D0007894889583B78E7F83BF0FB6F894A895AD
:1033E00080916000886180936000109260000FBE41
:1033F00008950895CF930E94C7190E94D6060E948F
:10340000F919C0E08C2F0E948B06811105C0CF5F97
:10341000C830C1F7CF91089581E0FCCF08950C9496
:103420000E1A0E9491120E94FD0D0E9470040C94CD
:103430000F1A1F921FB61F9211248F939F93AF9361
:10344000BF9380914102811113C0809187029091B6
:103450008802A0918902B0918A024196A11DB11DF6
:103460008093870290938802A0938902B0938A0286
:10347000BF91AF919F918F911F901FBE1F90189584
:1034800082E084BD93E095BD9AEF97BD80936E0076
:1034900008952FB7F8948091870290918802A091A7
:1034A0008902B0918A022FBF08952FB7F8946091D6
:1034B0008702709188028091890290918A022FBFC1
:1034C00008959C014FB7F8948091870290918802EB
:1034D000A0918902B0918A024FBF821B930B08957D
:1034E00078941F921FB61F9211248F939F93AF93CE
:1034F000BF938091870290918802A0918902B09138
:103500008A020196A11DB11D8093870290938802C3
:10351000A0938902B0938A02BF91AF919F918F913E
:103520001F901FBE1F90189581E08093E00080E2FD
:103530008093D8001092C9008FE19EE40197F1F7C3
:1035400000C0000087E090EBDC018093870390933C
:103550008803A0938903B0938A0388E19CE00FB6A7
:10356000F894A895809360000FBE90936000FFCF01
:103570009093A3018093A20108950E94C418811121
:1035800002C00E946D190E94CF18809340020E94D1
:10359000DC1890938C0280938B020E94D318682FC2
:1035A00070E090E080E00E94291660912B027091FB
:1035B0002C0280912D0290912E020C946316881F8C
:1035C0008827881F089591E0883F08F490E0892FAC
:1035D0000895982F907F903BE9F040F49039D1F016
:1035E000903AC1F09038B1F080E00895903D19F024
:1035F00020F4903CC9F782E00895903E59F0903F46
:1036000099F7815F8F3080F7E82FF0E0EE56FE4F9C
:103610008081089583E008950F93DC01ED91FC9182
:1036200009950F9108956F927F928F929F92AF921A
:10363000BF92CF92DF92EF92FF920F93CF93DF93DF
:1036400000D00F92CDB7DEB74C015B013A01F12CEF
:10365000E12CEA14FB0488F00F900F900F90DF919B
:10366000CF910F91FF90EF90DF90CF90BF90AF90F0
:103670009F908F907F906F90089519821A821B827D
:103680006501CE18DF0884E0C816D10418F083E085
:10369000C82ED12CB3016E0D7F1DA601CE0101965F
:1036A0000E94B5270B812A814981B601C4010E947D
:1036B0000C1B83E0E80EF11CCCCFFC01738362830A
:1036C0000895FC01738F628F0895FC01758F648FDC
:1036D0000895CF93DF93EC011DA21FA21EA2BC018F
:1036E000685D7F4F40EC88519F4F0E94741D1B8284
:1036F0001A821D821C821F821E82198618861B86D2
:103700001A861D861C861F861E86198A188A1B8AA1
:103710001A8A1D8A1C8A1F8A1E8A198E188E1B8E71
:103720001A8E1D8E1C8E1F8E1E8E19A218A2DF915E
:10373000CF910895EF92FF920F931F93CF93DF9352
:10374000EA018A01060F111D88519F4F7C01C017A5
:10375000D10739F4DF91CF911F910F91FF90EF9036
:1037600008956991C7010E947B1DF1CFFC0171830F
:1037700060830895FC0171A360A30895AF92BF9286
:10378000CF92DF92EF92FF920F931F93CF93DF932D
:1037900000D00F92CDB7DEB77C016B01142FB22E93
:1037A000A02EDC0195968C9195978430A9F55A96B8
:1037B000ED91FC913097E9F1CB01019763E070E066
:1037C0000E948027CB01880F991F860F971F49837E
:1037D000BA820B834C2D481B9E012F5F3F4FBC01CB
:1037E000C7010995D7015E96ED91FC91309731F0B4
:1037F0000A2D2B2D412FB601C70109950F900F906F
:103800000F90DF91CF911F910F91FF90EF90DF907C
:10381000CF90BF90AF9008956230710509F455C004
:103820006330710599F06130710509F481C0D12CC4
:10383000C12CD7015C96ED91FC91309799F20A2D3D
:103840002B2D412FB601C7010995CCCF842F807F46
:10385000803A11F148F48038D1F0803951F7D7011E
:103860001496ED91FC910AC0803ED9F0803FF1F0B2
:10387000803BF9F6D7011296ED91FC913097C9F291
:10388000123FE9F02A2D4B2D612F6F701BC0D7011D
:103890001696ED91FC91F2CFD7011896ED91FC911F
:1038A000EDCFD7011A96ED91FC91E8CF423F09F692
:1038B000D7011C96ED91FC91309709F4BACF2A2DCF
:1038C0004B2D62EFC70109958DCF842F807F803DFE
:1038D000B1F0803FC9F0803C09F0ABCFD7011E9614
:1038E000ED91FC91309709F4A4CF812F8D7F4B2D62
:1038F000612F6F70813F89F0C701099573CFD701A0
:103900005096ED91FC91EECF433F51F4D701529682
:10391000ED91FC91309709F48CCF4B2D612FECCFBA
:10392000413F09F086CFD7015496ED91FC91F2CF3B
:10393000842F0E94E31A882359F0D7015696ED91FF
:10394000FC91309709F475CF612FC70109954ACFD3
:10395000163F09F06ECFD7015896ED91FC91F1CF4B
:10396000FF920F931F93CF93DF93EC01162F862FB7
:103970000E94E31A882391F0FDA081E08DA300E06E
:1039800020E0412F61E070E0CE010E94BE1BFDA24D
:10399000DF91CF911F910F91FF900895812F0E9489
:1039A000DF1A4DA1882309F443C0443029F01AA33B
:1039B00081E090E09FA38EA3812F0E94E91A8130BD
:1039C00051F08823A9F0823089F0833079F01DA26C
:1039D0001FA21EA2DDCF8DA300E020E0412F61E0F9
:1039E00070E0CE010E94BE1B1DA2D2CF8DA3D0CF0E
:1039F000103FB1F0173F59F72EA13FA1C90163E075
:103A000070E00E948027FE01E80FF91F12A3B901A0
:103A10006F5F7F4F7FA36EA30CA12BA14AA1E1CFC3
:103A200084E08DA31AA381E090E09FA38EA3B0CF82
:103A3000442309F4ADCF2EA13FA1C90163E070E09A
:103A40000E948027FE01E80FF91F12A3B9016F5FE2
:103A50007F4F7FA36EA38130910569F0029709F033
:103A600097CF0CA12BA14AA1CE010E94BE1B8DA114
:103A70008430C9F68DCF00E0423009F089CFF2CF13
:103A8000CF92DF92EF92FF920F931F93CF93DF932A
:103A9000EC01E8A1F9A1309709F009956E0188EED3
:103AA000C80ED11CC6010E94AA1D10E000E0E82E3D
:103AB000F12C0E151F0548F0DF91CF911F910F914A
:103AC000FF90EF90DF90CF90089560E0C6010E94D4
:103AD000BE1D682FCE010E94B01C61E0C6010E948D
:103AE000CE1D0F5F1F4FE5CFFC01428374836383BC
:103AF0001182108208951F93CF93DF93EC01162F4C
:103B00000E94E51D482F298130E0C90101966A8194
:103B100070E00E94942758815817190641F4842FA9
:103B20000E94E81D80E0DF91CF911F9108958B8165
:103B30009C81280F391FF9011083898190E001963B
:103B40006A8170E00E9494278983842F0E94E81D77
:103B500081E0E9CFCF93DF93EC010E94E51D9981CD
:103B60002881921740F0C92FC21B0E94E81D8C2F9C
:103B7000DF91CF910895CA819C0FF5CFFC01808120
:103B8000860F9927991F628170E00E9494272381F4
:103B90003481280F391FF901808108951F93CF9335
:103BA000DF93EC01162F0E94E51D282F8881810FDD
:103BB0009927991F6A8170E00E9494278883822F39
:103BC000DF91CF911F910C94E81D8FB7F894089561
:103BD0008FBF0895482F47709C0183E03695279545
:103BE0008A95E1F757E0529FC001539F900D112431
:103BF000442319F00197840F911D08958F929F928D
:103C0000BF92CF92DF92EF92FF920F931F93CF93C9
:103C1000DF934C01EB017A01CA0167E070E00E947A
:103C200080278E01D40130E020E02617370709F005
:103C300046C0C70167E070E00E948027D90143E0D9
:103C4000AA0FBB1F4A95E1F7009761F1F401EA0F53
:103C5000FB1F108267E0629FA001639F500D11243B
:103C60008E01040F151F30E020E0E80179918E01EC
:103C70002F5F3F4F472F407850E0022E02C05595EE
:103C800047950A94E2F75081452B4083AF01420FDC
:103C9000531F7F77EA0178838217930731F70196E4
:103CA000A80FB91FCD01DF91CF911F910F91FF9008
:103CB000EF90DF90CF90BF909F908F9008951C92CF
:103CC000A80190E080E0FA01B190AF010196FB2DD0
:103CD000F078CF2ED12C082E02C0D594C7940A9428
:103CE000E2F7DC90CD28CC926D01C80ED91EE89485
:103CF000B7F8F601B0828730910529F72F5F3F4F63
:103D0000095F1F4F189691CF6F927F929F92AF924B
:103D1000BF92CF92DF92EF92FF920F931F93CF93B8
:103D2000DF933C0190E080E04230510560F15A01A0
:103D300083E0B694A7948A95E1F78301EB01B0E0A4
:103D4000A0E0AA15BB0569F5242F277037E03A9F3C
:103D5000C0013B9F900D11242223A9F0487F640FDE
:103D6000751FEB015301A80EB91EB0E0A0E0422F71
:103D700050E08A01015011092196A017B107B0F156
:103D80000197840F951FDF91CF911F910F91FF90A5
:103D9000EF90DF90CF90BF90AF909F907F906F900B
:103DA0000895780181E090E09E01280F391FF90104
:103DB0002081922EE89497F8F70191927F016F018C
:103DC000F1E0CF1AD1082881082E01C0220F0A94F1
:103DD000EAF720782929F601208301968830910599
:103DE00019F71196095F1F4F2896ABCF2881D22E65
:103DF000E894D7F8F501D1925F0111967F01F1E0C7
:103E0000EF1AF108FB013081232F0A2E01C0220F87
:103E10000A94EAF720782D29F7012083ADCF089581
:103E20000895EF92FF920F931F93CF93DF93CDB737
:103E3000DEB7A0970FB6F894DEBF0FBECDBFF90175
:103E40008B010450110990E080E08417C8F417FD3D
:103E50002BC0DF01A80FB91F3C91373FF1F4C80117
:103E60000E94EA1D7C01A80162E472E0CE01019685
:103E70000E94841EBE016F5F7F4FC7010E94E90749
:103E8000A0960FB6F894DEBF0FBECDBFDF91CF91E5
:103E90001F910F91FF90EF9008950532110584F75F
:103EA000D801AE5BBD4F3C930F5F1F4F0196CDCF46
:103EB0000F931F93CF93DF9300D000D000D00F92C9
:103EC000CDB7DEB78C01CE0101960E94DA218111B7
:103ED0000BC027960FB6F894DEBF0FBECDBFDF91A3
:103EE000CF911F910F9108958A810E94E91A9A81BA
:103EF0009D839B819E839C819F8381110AC08981C0
:103F0000843079F0873069F0863069F08530D9F6F1
:103F100081E0AE014B5F5F4F682FC8010E949A1B82
:103F2000D2CF83E0F6CF82E0F4CFDF92EF92FF9220
:103F30000F931F93CF93DF9300D000D0CDB7DEB7A0
:103F40007B01142FD22E4A832B830C83842F0E9453
:103F5000E91A811129C082E0E816F10401F183E039
:103F6000E816F10439F0EA94EF2869F485E0173F88
:103F700021F404C087E0073F09F084E08983CE0183
:103F800001960E94D5210F900F900F900F90DF9116
:103F9000CF911F910F91FF90EF90DF90089587EFE1
:103FA000D812EBCF86E0EACF12951F701983E7CFC6
:103FB0008DE892E00E94691B65E97FE18DE892E05F
:103FC0000E94B61B68E57FE18DE892E00E94BA1B73
:103FD0006FE07FE18DE892E00E94651B60E17FE188
:103FE0008DE892E00E945D1B61E17FE18DE892E047
:103FF0000C94611B9B0140917E034430C1F4FC0191
:1040000091819F709093E90050E040E064E070E09F
:10401000C9010E94A02281110BC09091E80095FD7A
:1040200007C09091E8009E779093E800089582E0A1
:10403000089520917E03243091F4FC0181818F70DA
:104040008093E9009091F3008091F200892B49F070
:104050008091E8008E778093E8000C944E2482E0F3
:10406000089580E00895FC0180917E03843059F426
:1040700091819F709093E9008091E80080FF03C0D8
:10408000CF010C94192008959B0140917E03443088
:1040900011F080E00895FC0196819F709093E900F3
:1040A0008091E80082FFF5CF8091E80085FFF1CF95
:1040B00050E040E064E070E0C9010E94EF2280918E
:1040C000E80085FD05C08091E8008B778093E800CB
:1040D00081E0089580916F020895CF93DF9300D01F
:1040E0000F92CDB7DEB790917E03943019F5898396
:1040F0007B836A8382E08093E9008FEF9091E800F0
:10410000815095FD06C095ED9A95F1F7000081115B
:10411000F5CF8091E80085FF0DC050E040E063E0FE
:1041200070E0CE0101960E94A0228091E8008E7777
:104130008093E8000F900F900F90DF91CF9108953A
:10414000BC0184E00C946D20BC0183E00C946D20D4
:104150009C0182E08093E9009FEF8091E8009150FC
:1041600085FD06C085ED8A95F1F700009111F5CF28
:104170008091E80085FF0CC050E040E066E070E010
:10418000C9010E94A0228091E8008E778093E80008
:104190000895CF93DF93EC0181E08093E9008FEFE6
:1041A0009091E800815095FD06C095ED9A95F1F744
:1041B00000008111F5CF8091E80085FF14C050E028
:1041C00040E068E070E0CE010E94A0228091E8000B
:1041D0008E778093E80088E0FE01A7E6B2E00190C8
:1041E0000D928A95E1F7DF91CF91089580917D033B
:1041F000811109C00E947F240E94DC248091E2008A
:1042000084608093E200089510927D0308950895DC
:104210000895089542E061EC81E00E94FB2342E2B0
:1042200061EC82E00E94FB2342E361E883E00E94AC
:10423000FB2342E361E884E00C94FB23809180033C
:10424000833009F45FC030F48130C1F1823009F469
:104250009BC008958A3009F487C08B3009F46DC083
:10426000893009F04EC080917F03813209F049C046
:104270008091830390918403029708F042C080915B
:10428000E800877F8093E8008091E80082FF35C0D6
:104290009091F3008091F200029729F48091F1004F
:1042A0008B7F813021F48091F10080936F028091A7
:1042B000E8008B778093E8000C942F2480917F0393
:1042C000813AF9F48091E800877F8093E80080913B
:1042D000830390918403892B61F468E087E692E080
:1042E00070E00E943E238091E8008B778093E80085
:1042F000089560E090E080E0F3CF80917E0381112B
:10430000C3CF089580917F03813AD9F780918303C9
:1043100090918403892BA9F78091E800877F80938F
:10432000E8008091E80080FFFCCF8091200180931D
:10433000F1008091E8008E77BDCF80917F038132BC
:1043400001F78091830390918403892BD1F68091AA
:10435000E800877F8093E8000E942F2480918103EA
:10436000809320010C94911280917F03813249F651
:104370008091E800877F8093E8000E942F2480913D
:10438000820380937002089580917F03813A09F03F
:10439000B8CF8091E800877F8093E8008091E800A3
:1043A00080FFFCCF80917002C2CFBC018AE091E017
:1043B0000C94FA1FBC018AE091E00C9444200E9406
:1043C000D81F84B7877F84BF0FB6F894A8958091D3
:1043D0006000886180936000109260000FBE80E8EA
:1043E00090E00FB6F89480936100909361000FBE47
:1043F0000E947C0E0E947F240E94DC248091E200B7
:1044000084608093E20078940E9465270E948C0E5D
:1044100086E191E00E94F80D80917E038530C9F01D
:104420000E94940E8AE091E00E9433200E948A0E3E
:104430000E948B0EF1CF0E94CB1980917C038823C0
:1044400041F00E94FA19882321F00E948A220E94DA
:10445000911280917E03853071F30E94111AE0CF92
:104460000C943222292F33272330310519F168F4B7
:104470002130310509F444C02230310509F445C02A
:1044800090E080E030E020E025C02132310549F1A4
:1044900022323105A9F780E490E02AEE34E061157C
:1044A0007105C1F08BE790E02FE634E061307105D3
:1044B00089F0E6CF99278130910581F0009729F0A6
:1044C0000297F1F6ECE8F3E002C0EAEBF3E0849146
:1044D00090E09F01FA01318320830895ECE9F3E035
:1044E000F6CF89E090E020ED33E06115710591F39E
:1044F00089E090E029EE33E06130710559F3C0CFD7
:1045000082E190E02DE534E0E5CF8FE990E02EEBFD
:1045100033E0E0CF80E189BD82E189BD09B400FECE
:10452000FDCF8091D8008F7D8093D8008091E000EE
:1045300082608093E0008091E00081FDFCCF0895CF
:10454000AF92BF92CF92DF92FF920F931F93CF93C0
:10455000DF936C01EB018A010E944E24F82E811139
:1045600023C00115110539F0F80180819181C81B24
:10457000D90BC80ED91EB12CA12C2097A9F080917F
:10458000E80085FD22C08091E8008E778093E800E6
:1045900001151105A1F0F80180819181A80EB91EC5
:1045A000B182A08285E0F82E8F2DDF91CF911F91EF
:1045B0000F91FF90DF90CF90BF90AF9008950E9431
:1045C0004E248823D1F2F82EEFCFF60181916F01AE
:1045D0008093F1002197FFEFAF1ABF0ACECFAF92C1
:1045E000BF92CF92DF92FF920F931F93CF93DF93EF
:1045F0006C01EB018A010E944E24F82E811123C028
:104600000115110539F0F80180819181C81BD90B82
:10461000C80ED91EB12CA12C2097A9F08091E800DA
:1046200085FD22C08091E8008B778093E80001151A
:104630001105A1F0F80180819181A80EB91EB18207
:10464000A08285E0F82E8F2DDF91CF911F910F91E1
:10465000FF90DF90CF90BF90AF9008950E944E24BE
:104660008823D1F2F82EEFCF8091F100F6018193EB
:104670006F012197FFEFAF1ABF0ACECFFC018091E7
:1046800085039091860386179707A0F06115710541
:1046900029F49091E8009E779093E80090E06115EE
:1046A000710551F4911108C08091E80082FF34C077
:1046B00080E00895BC01F2CF80917E038823C1F190
:1046C0008530C1F18091E80083FD30C08091E80021
:1046D00082FDEACF8091E80080FFE1CF8091F30076
:1046E0002091F200382F6115710519F0283031053D
:1046F00058F091E02830310509F090E02091E80071
:104700002E772093E800CBCF81918093F100615008
:1047100071092F5F3F4FE7CF80917E03882341F0DF
:10472000853041F08091E80083FFBECF81E008959D
:1047300082E0089583E00895FC01809185039091C3
:10474000860386179707A0F06115710529F48091FB
:10475000E8008E778093E80090E06115710551F4D0
:10476000911108C08091E80082FF35C080E0089573
:10477000BC01F2CF80917E038823C9F18530C9F155
:104780008091E80083FD31C08091E80082FDEACF8E
:104790008091E80080FFE1CF8091F3002091F2004A
:1047A000382F6115710519F02830310558F091E066
:1047B0002830310509F090E08091E8008E778093F1
:1047C000E800CBCF84918093F1003196615071095C
:1047D0002F5F3F4FE6CF80917E03882341F08530E5
:1047E00041F08091E80083FFBDCF81E0089582E031
:1047F000089583E00895982F973028F08F70809364
:10480000E90081E008959093E900242F762F50E08D
:10481000981731F07091EC002091ED005091F0006C
:1048200021FD02C09F5FE8CF3091EB003E7F3093C7
:10483000EB003091ED003D7F3093ED003091EB00C7
:1048400031603093EB007093EC002093ED005093B7
:10485000F0002091EE0027FDE5CF80E008958091E3
:104860007F0387FF13C08091E80082FF06C080911C
:10487000E8008B778093E80004C080917E0381116B
:10488000F2CF089580917E038823D9F38091E800C8
:1048900080FFF8CF8091E8008E77ECCF2091E40084
:1048A0003091E50095E6A9012091EC00822F8170FE
:1048B00020FF06C08091E80080FF06C080E00895D8
:1048C0002091E80022FD1AC080917E03882389F0A0
:1048D000853089F08091EB0085FD0FC02091E400C8
:1048E0003091E50042175307F9F29150E1F684E068
:1048F000089582E0089583E0089581E008950E947C
:10490000ED240E94F524E0EEF0E080818160808358
:10491000E8EDF0E080818F77808319BCA7EDB0E0EF
:104920008C918E7F8C9380818F7E808310927D030B
:1049300008950F931F93CF93DF930E94ED240E945D
:10494000F524C8EDD0E088818F77888388818068DE
:10495000888388818F7D888319BC10927E03109292
:104960007A0310927C0310927B0300EE10E0F801B2
:1049700080818B7F808388818160888342E060E0D2
:1049800080E00E94FB23E1EEF0E080818E7F808357
:10499000E2EEF0E0808181608083808188608083A6
:1049A000F80180818E7F8083888180618883DF9198
:1049B000CF911F910F910895E8EDF0E080818F7EF7
:1049C0008083E7EDF0E080818160808384E082BFB6
:1049D00081E080937D030C949924E8EDF0E08081E0
:1049E0008E7F80831092E20008951092DA00109278
:1049F000E10008951F920F920FB60F9211242F938A
:104A00003F934F935F936F937F938F939F93AF9356
:104A1000BF93EF93FF938091E10082FF0BC08091E1
:104A2000E20082FF07C08091E1008B7F8093E1006C
:104A30000E9464278091DA0080FF19C08091D8001D
:104A400080FF15C08091DA008E7F8093DA0080911C
:104A5000D90080FF96C080E189BD82E189BD09B49B
:104A600000FEFDCF81E080937E030E94F6208091BE
:104A7000E10080FF19C08091E20080FF15C08091A5
:104A8000E2008E7F8093E2008091E200806180935B
:104A9000E2008091D80080628093D80019BC85E044
:104AA00080937E030E9408218091E10084FF2BC047
:104AB0008091E20084FF27C080E189BD82E189BD49
:104AC00089B5982F917080FFFBCF8091D8008F7DA2
:104AD0008093D8008091E1008F7E8093E1008091E7
:104AE000E2008F7E8093E2008091E20081608093FB
:104AF000E20080917A03882309F449C084E080931E
:104B00007E030E9409218091E10083FF29C08091EA
:104B1000E20083FF25C08091E100877F8093E10060
:104B200082E080937E0310927A038091E1008E7F71
:104B30008093E1008091E2008E7F8093E20080917B
:104B4000E20080618093E20042E060E080E00E9449
:104B5000FB238091F00088608093F0000E94072181
:104B6000FF91EF91BF91AF919F918F917F916F9145
:104B70005F914F913F912F910F900FBE0F901F901B
:104B8000189519BC10927E030E94042170CF809169
:104B9000E30087FD93E090937E03B3CF1F920F92C3
:104BA0000FB60F9211242F933F934F935F936F9300
:104BB0007F938F939F93AF93BF93CF93DF93EF93A5
:104BC000FF93D091E900DF708091EC00C82FC17095
:104BD00080FDC0E81092E9008091F000877F80930B
:104BE000F00078940E9412261092E9008091F00063
:104BF00088608093F000CD2BCF70C093E900FF91C7
:104C0000EF91DF91CF91BF91AF919F918F917F9164
:104C10006F915F914F913F912F910F900FBE0F9029
:104C20001F9018951F93CF93DF93CDB7DEB7AA9748
:104C30000FB6F894DEBF0FBECDBF8FE793E0209193
:104C4000F100FC012193CF01F3E087389F07B9F70A
:104C50000E941E218091E80083FF1EC180917F0386
:104C6000909180039A3008F017C1E92FF0E0E35DDE
:104C7000F74D0C94A827803899F0823809F00CC1C0
:104C8000809183038F70873008F006C18093E9001C
:104C90008091EB0085FB882780F91092E90006C01F
:104CA00080917B0390917C03911182609091E80048
:104CB000977F9093E8008093F1001092F10080912B
:104CC000E8008E77E5C0882309F4D3C0823009F06C
:104CD000E3C0809181038111D6C0809183038F70DE
:104CE0002FEF280F263008F0D7C08093E9002091DD
:104CF000EB0020FFC8C0933031F48091EB0080625C
:104D00008093EB00C0C09091EB0090619093EB001A
:104D100021E030E001C0220F8A95EAF72093EA00F3
:104D20001092EA008091EB008860EACF8111B4C054
:104D3000109181031F778091E3008078812B80930D
:104D4000E3008091E800877F8093E8000E942F2491
:104D50008091E80080FFFCCF8091E3008068809321
:104D6000E30082E0111183E080937E0395C08058B8
:104D7000823008F091C080918103909182038C3D34
:104D800023E09207A1F583E08A838AE289834FB703
:104D9000F894DE01139620E03EE051E2E32FF0E0CC
:104DA00050935700E49120FF03C0E295EF703F5FFE
:104DB000EF708E2F90E0EA30C0F0C7968D939D93F0
:104DC0002F5F243159F74FBF8091E800877F809390
:104DD000E8006AE270E0CE0101960E943E238091D5
:104DE000E8008B778093E80057C0C096E7CF6091CA
:104DF000830370918403AE014F5F5F4F0E943022A6
:104E0000BC01892B09F448C09091E800977F9093EA
:104E1000E80089819A810E949C23E1CF8038E1F5E6
:104E20008091E800877F8093E80080917A038093E7
:104E3000F10045CF811130C090918103923060F52F
:104E40008091E800877F8093E80090937A030E9426
:104E50002F2480917A03882311F084E005C080918B
:104E6000E30087FDFACF81E080937E030E940A2150
:104E700013C080918103813079F481E0933009F08F
:104E800080E080937C031092E9008091E800877FA6
:104E90008093E8000E942F248091E80083FF0AC0DD
:104EA0008091E800877F8093E8008091EB0080622A
:104EB0008093EB00AA960FB6F894DEBF0FBECDBF6D
:104EC000DF91CF911F9108950895CF9380917E0334
:104ED0008823A1F0C091E900CF709091EC00892F58
:104EE000817090FD80E8C82B1092E9008091E80065
:104EF00083FD0E941226CF70C093E900CF910895E0
:104F0000AA1BBB1B51E107C0AA1FBB1FA617B707EF
:104F100010F0A61BB70B881F991F5A95A9F780950B
:104F20009095BC01CD01089597FB072E16F40094CF
:104F300007D077FD09D00E94802707FC05D03EF4FA
:104F4000909581959F4F0895709561957F4F089535
:104F5000EE0FFF1F0590F491E02D09946927962725
:104F600069277827872778270895FB01DC0102C08D
:104F700001900D9241505040D8F70895F999FECF15
:104F800092BD81BDF89A992780B50895A8E1B0E057
:104F900042E050E00C94F227262FF999FECF92BD03
:104FA00081BDF89A019700B4021639F01FBA20BDEE
:104FB0000FB6F894FA9AF99A0FBE08950396272F20
:104FC0000E94CD270E94CC27252F0E94CD27242F79
:104FD0000C94CD270196272F0E94CD270C94CC2727
:104FE000DC01CB01FC01F999FECF06C0F2BDE1BDA9
:104FF000F89A319600B40D9241505040B8F7089598
:10500000F894FFCF4408590865088B087F08850885
:105010000F084D0879080F080F080F0895084C1065
:105020004C10A410A410F6101211791079101D1153
:10503000A911B811B8111412791079101D12A0120B
:10504000A012A912A912AB12A912A912A912A01298
:10505000A012B012A912A912B0123B2663264C2747
:0E50600063264C279626B7264C270E271A27C4
:10506E002808641E140A321E350203834000000114
:10507E000440000001006A20C920A820A420A0201E
:10508E0001E200E900EA00B500B600B700CD0083EA
:10509E0001CC008A019201940121022302240225EF
:1050AE0002260227022A02B300B4006F00700081AC
:1050BE008283F7F6F5F4F1F0673435663690929503
:1050CE0096E200E900EA00B500B600B700CD008315
:1050DE0001CC008A019201940121022302240225AF
:1050EE0002260227022A02B300B4006F007000816C
:1050FE00828302030200000100010101010100018F
:02510E0001009E
:00000001FF
